:020000040800F2
:10000000500A0020290200087B220008911E0008E7
:1000100079220008AF040008CD2A00080000000083
:10002000000000000000000000000000F3220008B3
:100030008505000800000000F1220008F5220008F4
:10004000430200084302000843020008430200087C
:10005000430200084302000843020008430200086C
:10006000430200084302000843020008B1040008EC
:1000700043020008BD04000843020008C904000848
:10008000430200084302000843020008430200083C
:10009000430200084302000843020008430200082C
:1000A000430200084302000843020008430200081C
:1000B000430200084302000843020008430200080C
:1000C00043020008430200084302000843020008FC
:1000D00043020008430200084302000843020008EC
:1000E00043020008430200084302000843020008DC
:1000F000430200084302000843020008D504000838
:1001000043020008430200084302000843020008BB
:100110007D26000889260008430200089D23000868
:10012000430200084302000843020008430200089B
:100130004302000800000000000000004302000825
:10014000430200084302000843020008430200087B
:10015000430200084302000843020008430200086B
:10016000430200084302000843020008430200085B
:1001700043020008430200080000000000000000E5
:10018000430200084302000800F002F800F03CF8C7
:100190000AA090E8000C82448344AAF10107DA45E2
:1001A00001D100F031F8AFF2090EBAE80F0013F0F8
:1001B000010F18BFFB1A43F001031847302C000051
:1001C000502C0000103A24BF78C878C1FAD85207E2
:1001D00024BF30C830C144BF04680C6070470000C1
:1001E0000023002400250026103A28BF78C1FBD840
:1001F000520728BF30C148BF0B6070471FB502F0DF
:10020000DFFD1FBD10B510BD00F017F91146FFF757
:10021000F5FF02F06DFC00F035F903B4FFF7F2FFD3
:1002200003BC00F03DF90000094880470948004739
:10023000FEE7FEE7FEE7FEE7FEE7FEE7FEE7FEE796
:10024000FEE7FEE704480549054A064B70470000F3
:100250008D2300088901000850040020500A002066
:10026000500600205006002053EA020C00F069807E
:100270002DE9F04B4FF00006002B1FBFB3FA83F5BA
:1002800003FA05F424FA05F65E4012BF1643B2FAEB
:1002900082F502FA05F4C5F120051EBF22FA05FC1D
:1002A00044EA0C04203556EA044C4FEA144418BFC3
:1002B000641C4FF000084FF00009904271EB030CF2
:1002C00039D3002919BFB1FA81F701FA07F6B0FA5C
:1002D00080F700FA07F6C7F120071EBF20FA07FCD7
:1002E00046EA0C062037B6FBF4FCA7EB0507103FE7
:1002F00007F01F0BCBF120060CFA0BFB2CFA06F6CD
:1003000044BFB3460026202FA4BF5E464FF0000B2B
:100310005BEA060C08BF4FF0010B19EB0B09ABFBB6
:10032000027C48EB0608C01B06FB02CC0BFB03CC8F
:1003300071EB0C01C1E70B46024641464846BDE859
:10034000F08B13B54FF000004FF00001AFF30080C9
:10035000BDE81C40704700000FB41CB5084B06AA4E
:100360007B4469460090059800F03BF80446002065
:10037000694600F049F820461CBC5DF814FB0000FB
:10038000A50000004FF0000200B5134694469646C3
:10039000203922BFA0E80C50A0E80C50B1F1200198
:1003A000BFF4F7AF090728BFA0E80C5048BF0CC046
:1003B0005DF804EB890028BF40F8042B08BF7047A4
:1003C00048BF20F8022B11F0804F18BF00F8012B16
:1003D000704770477047704701694A1C026108788E
:1003E000704700B58FB0CDE9013100210591054975
:1003F0007944CDE903101146684600F00AF80FB0C1
:1004000000BD0000E5FFFFFF0A6802F8010B0A606B
:1004100070472DE9F04106460024D6E90170F568E1
:100420008046304603E04146B847641C3046A84742
:100430000028F8D12046BDE8F081754600F02CF880
:10044000AE4605006946534620F00700854618B0C1
:1004500020B5FFF7F7FEBDE820404FF000064FF053
:1004600000074FF000084FF0000B21F00701AC46E9
:10047000ACE8C009ACE8C009ACE8C009ACE8C00908
:100480008D46704710B50446AFF300802046BDE8A6
:100490001040FFF7C2BE000000487047EC03002088
:1004A00001491820ABBEFEE7260002007047FEE7B8
:1004B000014800F0C5B800002C030020014800F0FE
:1004C000BFB800006C020020014800F0B9B800007D
:1004D000CC020020014800F0B3B800008C030020DB
:1004E00001681823CAB2103AB2FBF3F2054B6FF35E
:1004F0000901032A9B5CC36500D9091D8165084673
:1005000070470000E22D000810B5014600208B69FD
:100510008A6A4FF0C07453B1B3F5005F15D072B161
:10052000012A0CD0022A0AD0032A09D104E01AB108
:10053000012A06D0022A03D1C96AC90100D50120C7
:1005400010BDC96AA142FAD010BD002AF7D0012A15
:10055000F2D0022AF3D0032AF3D010BD30B50468DC
:10056000256825F480252560046863608368402B36
:10057000036803D099600068C26030BD9A6000686B
:10058000C16030BD704772B6FEE72DE9F041044608
:10059000876D00F0D1FA064694F835000025022850
:1005A00006D08020606584F834500120BDE8F081D9
:1005B0002068016821F0160101602068416921F07E
:1005C00080014161206C08B9A06C20B120680168ED
:1005D00021F0080101602068016821F0010101603B
:1005E0000CE000F0A9FA801B052807D920206065DF
:1005F000032084F8350084F83450D7E72068006879
:10060000C007EED194F85C103F208840B86001200C
:1006100084F8350084F834500020C7E790F835108E
:10062000022903D08021416501207047052180F80F
:1006300035100068016821F0010101600020704759
:100640002DE9F84304464FF00009CDF800906348C7
:100650004FF41651A56D0068B0FBF1F72E6894F8C1
:100660005C10082000FA01F131420FD021680A68BD
:1006700052070BD50A6822F004020A6094F85C1055
:100680008840A860606D40F00100606594F85C10DF
:100690004FF0010808FA01F0304208D0216849699A
:1006A000090604D5A860606D40F00200606594F80A
:1006B0005C1004208840304208D02168096889070E
:1006C00004D5A860606D40F00400606594F85C108B
:1006D00010208840304218D021680968090714D5D5
:1006E000A86020680168490304D50068000308D5A4
:1006F000A16C07E00168C90503D4016821F0080175
:100700000160216C09B12046884794F85C102020D4
:100710008840304231D021680968C9062DD5A860CB
:1007200094F8350005282068016806D0490347D5AC
:10073000006800031DD4616C1CE021F0160101600B
:100740002068416921F080014161206C08B9A06CEA
:1007500020B12068016821F00801016094F85C1064
:100760003F208840A86084F8358084F83490216D5B
:100770001FE0E16B09B120468847606D00282BD04F
:10078000606DC00714D0052084F83500206801682A
:1007900021F0010101600098401C0090B84203D88C
:1007A00020680068C007F6D184F8358084F834905A
:1007B000E16C002910D001B02046BDE8F0430847A5
:1007C0000168C905D5D4016821F01001016084F8E1
:1007D000358084F83490CCE7BDE8F8830000002031
:1007E0002DE9F041044600F0A7F906465CB102206D
:1007F00084F83500002584F834502068016821F021
:10080000010101600DE00120BDE8F08100F094F9E4
:10081000801B052805D920206065032084F8350059
:10082000F2E720680068C007F0D12268116820480C
:100830000140D4E901031843D4E903363343184394
:1008400063691843A3691843E3691843236A18438B
:100850000843616A042903D1D4E90B1319430843FF
:10086000106020684069666A20F0070130460E4338
:10087000012704280CD1A06A0643E06A40B1204653
:10088000FFF742FE20B14020606584F83570BAE77A
:10089000206846612046FFF723FE94F85C203F2144
:1008A00091408160656584F835700020ACE70000F8
:1008B0003F8010F02DE9F0410446866D90F8340039
:1008C000002501280DD0012084F8340094F83570FB
:1008D0000020012F07D084F8340002252846BDE807
:1008E000F0810220FBE7022784F83570606520461E
:1008F000FFF734FE94F85C103F208840B060206819
:10090000016841F016010160206C20B12068016887
:1009100041F0080101602068016841F001010160B7
:10092000DCE7000070B5044600F006F90546601CDF
:1009300002D004480078044400F0FEF8401BA042B6
:10094000FAD370BD040000202DE9F84FDFF8BCA1F8
:100950000022012503264FF00F090AF1040BAAF12A
:10096000040E00BF0B6805FA02F42340A34270D1C5
:100970000F7907F00307012F01D0022F16D18768E6
:100980004FEA420806FA08FC27EA0C07D1F80CC027
:100990000CFA08FC4CEA070CC0F808C04768A743EB
:1009A0000C79C4F3001494403C4344600C79E44354
:1009B000A4070AD0C4684FEA420C06FA0CF7BC43FD
:1009C0008F6807FA0CF72743C7600C7904F003041B
:1009D000022C12D1D40800EB840CDCF8204057071D
:1009E000FF0E09FA07F824EA0804D1F8108008FA83
:1009F00007F848EA0408CCF8208004684FEA420C63
:100A000006FA0CF7BC430F7907F0030707FA0CF757
:100A1000274307604C6814F4403F70D03C4C276873
:100A200047F480472760246822F0030704F48044D9
:100A30000094384C07EB040CDCF8084897074FEAA1
:100A4000177809FA08F7BC43334FB84202D10027A0
:100A500024E054E0314FB84201D101271EE0304F6D
:100A6000B84201D1022719E02E4FB84201D1032725
:100A700014E02D4FB84201D104270FE02B4FB842AC
:100A800001D105270AE02A4FB84201D1062705E027
:100A9000284FB84201D1072700E0082707FA08F7D6
:100AA0002743CCF80878DAF800405746D1F804C05C
:100AB0009C435FEACC2C00D51C433C60DBF8004033
:100AC0005F46D1F804C09C435FEA8C2C00D51C43E0
:100AD0003C60DEF800407746D1F804C09C435FEAF2
:100AE0008C3C00D51C433C60084F083F3C68D1F863
:100AF00004C09C435FEACC3C00D51C433C60521CC4
:100B0000102AFFF42FAFBDE8F88F0000083C014029
:100B1000443802400030014000000240000402401E
:100B200000080240000C0240001002400014024085
:100B300000180240001C0240014880687047000015
:100B400004000020024881680278114481607047E7
:100B5000040000200B4810B5016841F400710160E9
:100B6000016841F480610160016841F480710160B5
:100B7000032000F06FF8002000F006F800F024F8E1
:100B8000002010BD003C024070B50D4D04464FF4EE
:100B90007A712878B1FBF0F00A490968B1FBF0F0EE
:100BA00000F00CFB48B9102C07D200222146501E41
:100BB00000F030F800206C6070BD012070BD0000B6
:100BC00004000020000000200A4808B5016841F434
:100BD00080410160006800F4804000900548001FDB
:100BE000016841F080510160006800F08050009081
:100BF00008BD000044380240002809DB00F01F0255
:100C0000012191404009800000F1E020C0F800116E
:100C100070470000F0B40E4B1B680C46C3F3022370
:100C2000C3F10705042D00D90425191D072901D298
:100C3000002300E0DB1E012606FA05F1491E2140D3
:100C400099409E40761E16403143F0BC01F03FBFF4
:100C50000CED00E0064900F0070208684FF6FF03BC
:100C6000184040EA0220034A104308607047000021
:100C70000CED00E00000FA052DE9F0470E460500F6
:100C800065D0DFF81481D8F80000F7B200F0070053
:100C9000B04207D288F80070D8F8000000F00700D2
:100CA000B04254D128683D4C810712D5400703D586
:100CB000206840F4E05020602878000703D52068C1
:100CC00040F4604020602068A96820F0F0000843EC
:100CD00020602878C0072DD030496868083901287D
:100CE00012D0022813D0032811D0096889070029DF
:100CF0002DDA216821F0030101432160FFF71CFF79
:100D0000814641F2883A0EE009688903EFE70968F5
:100D10008901ECE7FFF710FFA0EB0901514502D96B
:100D20000320BDE8F0872068696800F00C00B0EB94
:100D3000810FEFD1D8F80010404601F00701B14211
:100D400007D90770006800F00700B04201D0012009
:100D5000E7E72878400705D52068E96820F4E050E7
:100D6000084320602878000706D52068296920F408
:100D7000604040EAC100206000F038F82168084A6D
:100D8000C1F30311515CC840064908600648006879
:100D9000FFF7FAFE0020C4E7003C0240083802409A
:100DA000CA2D000800000020080000200448054962
:100DB00000680968044AC1F38221515CC840704749
:100DC0000000002008380240DA2D000804480549D8
:100DD00000680968044AC1F34231515CC840704759
:100DE0000000002008380240DA2D0008154810B530
:100DF000006810F00C02144813D01449042A0FD0D4
:100E0000082A0ED10F4C241F2268236802F03F02EB
:100E10005B0207D52068C0F38810A0FB010106E043
:100E2000084610BD2168C1F38811A1FB0001002311
:100E3000FFF71AFA2168C1F30141491C4900B0FBD0
:100E4000F1F010BD083802400024F40040787D0124
:100E50002DE9F84F04006ED02078DFF84C93C007DE
:100E6000A9F104054AD009F104000168C1F3810128
:100E7000012908D00068C0F3810002280AD1D9F8FE
:100E80000000400206D52868800337D56068002836
:100E9000E1D033E06068B0F5803F10D0B0F5A02F0E
:100EA000286810D020F480302860286820F4802042
:100EB00028606068A8B1FFF73FFE06460DE028688D
:100EC00040F48030F4E740F480202860F7E700BF6A
:100ED000FFF732FE801B642873D828688003F7D59B
:100EE0000CE0FFF729FE064605E000BFFFF724FEF1
:100EF000801B6428F0D828688003F7D42078DFF8B6
:100F0000AC8280074FF0000A3ED5A748001D01685B
:100F100011F00C0F08D00068C0F3810002280BD13B
:100F2000D9F80000400207D42868800716D5E06889
:100F3000012800D112E033E1E068B8B10120C8F81F
:100F40000000FFF7F9FD064605E000BFFFF7F4FDDE
:100F5000801B0228C0D828688007F7D52868216937
:100F600020F0F80040EAC10028600DE0C8F800A0B9
:100F7000FFF7E2FD064604E0FFF7DEFD801B0228D6
:100F80001FD828688007F7D42078000722D5864F1D
:100F900087486169703771B101210160FFF7CCFDAD
:100FA000064604E0FFF7C8FD801B022809D8386810
:100FB0008007F7D50EE0C0F800A0FFF7BDFD06469C
:100FC00005E082E0FFF7B8FD801B02287DD8386875
:100FD0008007F7D42078400768D5DFF8CCB1002728
:100FE0000BF13C0BDBF80000C0000BD4DBF8001069
:100FF00041F08051CBF80010DBF80000012700F031
:10100000805000906B4E3068C00510D4306840F4BA
:1010100080703060FFF790FD009005E0FFF78CFDD9
:101020000099401A022850D83068C005F6D55E4EA7
:10103000A0686C3601280FD00528306810D020F049
:1010400001003060306820F004003060A068B8B162
:10105000FFF772FD00900FE0306840F00100F4E708
:1010600040F004003060F7E7FFF766FD0099411A91
:1010700041F28830814266D830688007F4D50EE0AE
:10108000FFF75AFD009007E0FFF756FD0099411A5F
:1010900041F28830814256D830688007F4D42FB1AD
:1010A000DBF8001021F08051CBF80010A069C8B324
:1010B0003D49091D0968C1F3810102294AD002286E
:1010C000504607D0C8F8600000E03CE0FFF734FD70
:1010D00004463BE04746C8F86000FFF72DFD064692
:1010E00005E000BFFFF728FD801B02282BD82868E9
:1010F0008001F7D4D4E907010843A16A2E4A4908C0
:1011000002EB0141626A41EA8211084394F82C1013
:1011100040EA0161C9F8001001203866FFF70CFDB4
:10112000044606E03EE000BFFFF706FD001B022874
:1011300009D828688001F7D534E000BFFFF7FCFC30
:10114000001B022802D90320BDE8F88F286880011F
:10115000F4D427E00128F7D0D9F80000E26900F4C0
:10116000800191421CD1226A00F03F01914217D1C7
:1011700047F6C071626A0140B1EB821F10D1A26ACA
:101180004FF0FF3300F4403103EB5202B1EB024F5A
:1011900006D194F82C1000F07060B0EB016F01D014
:1011A0000120D1E70020CFE7043802400000474289
:1011B000800E4742007000400000FFFF10B5401E47
:1011C000B0F1807F01D3012010BD4FF0E0246061B9
:1011D0000F21601701F07BFC0020A0610720206137
:1011E000002010BD7047704710B590F83C20012AD0
:1011F00022D0012280F83C20CA688C6822F4407218
:1012000022434C6822F4806222430C6822F400627C
:1012100022430C6922F4805222434C6922F400528A
:101220002243C969002322F480420A4301684A64C8
:1012300080F83C30002010BD022010BD70B590F841
:101240003C20012A32D0012480F83C40022280F860
:101250003D2003685A689D6822F070060A68324390
:101260005A60134B02689A4214D0B2F1804F11D0E9
:10127000104B9A420ED0104B9A420BD00F4B9A4211
:1012800008D00F4B9A4205D00E4B9A4202D00E4B1B
:101290009A4204D1496825F080031943916080F88F
:1012A0003D40002180F83C10084670BD022070BD12
:1012B000000001400004004000080040000C004015
:1012C00000040140004001400018004010B5040037
:1012D00003D094F83D0010B107E0012010BD0020BC
:1012E00084F83C00204600F01FF8022084F83D00FE
:1012F000211D206801F058F8012084F8460084F888
:101300003E0084F83F0084F8400084F8410084F8EF
:10131000420084F8430084F8440084F8450084F8CF
:101320003D00002010BD000008B501681948814249
:1013300001D1194810E01848001FB1F1804F0BD0BF
:10134000164A914210D1016841F002010160006823
:1013500000F00200009008BD016841F00101016049
:10136000006800F00100F5E70D4A9142F3D10168F1
:1013700041F0200101600068002200F02000009090
:1013800002213720FFF746FCBDE808403720FFF771
:1013900033BC00000000014044380240000400401B
:1013A0000014004070B5044690F83C000025012868
:1013B00017D0012684F83C60022084F83D002068A4
:1013C000826822F0770222F47F4282600868502807
:1013D00038D00DDC20284FD005DC90B3102811D177
:1013E0004AE0022070BD302846D040280AD13BE0B8
:1013F00060282FD070280DD0B0F5805F03D0B0F5F5
:10140000005F12D0012584F83D60002084F83C0084
:10141000284670BDCB68D1E90121206801F035F87C
:101420002068816841F0770109E0CB68D1E90121AA
:10143000206801F02AF82068816841F480418160C9
:10144000E1E719E0CA684968206801F0F3F8502123
:10145000206806E0CA684968206801F0FCF860214D
:10146000206801F01CF8CEE7CA684968206801F0DE
:10147000E1F840212068F4E7226801461046F0E7D1
:10148000704770B50446006801694FF00005C94314
:10149000890715D4C168C943890711D4E91E0161C0
:1014A00001202077206880698007204602D0FFF75E
:1014B000E7FF04E000F0F8F8204600F08AF925770D
:1014C00020680169C943490717D4C168C94349075E
:1014D00013D46FF004010161022020772068806935
:1014E00010F4407F204602D0FFF7CAFF04E000F06E
:1014F000DBF8204600F06DF9257720680169C943C3
:10150000090716D4C168C943090712D46FF008014E
:101510000161042020772068C0698007204602D03E
:10152000FFF7AEFF04E000F0BFF8204600F051F9ED
:10153000257720680169C943C90617D4C168C94322
:10154000C90613D46FF010010161082020772068CC
:10155000C06910F4407F204602D0FFF791FF04E0FD
:1015600000F0A2F8204600F034F9257720680169E0
:10157000C943C90708D1C168C943C90704D1891E35
:101580000161204600F08AF920680169C943090613
:1015900009D4C168C943090605D46FF0800101610F
:1015A0002046FFF71FFE20680169C943490609D498
:1015B000C168C943490605D46FF040010161204666
:1015C00000F06DF920680169C94389060BD4C16830
:1015D000C943890607D46FF0200101612046BDE8A8
:1015E0007040FFF700BE70BD70B586B00446142190
:1015F0006846FEF7C7FE274E2268002426490225CA
:1016000001232648B2420AD10A6842F001020A6068
:10161000096801F0010105914FF4706130E0B2F109
:10162000804F24D01E4B9A4232D10A6842F0010208
:101630000A600A6802F0010205920A6842F002029A
:101640000A60096801F002010591C0210091CDE90D
:1016500001546946CDE90345FFF776F90320009070
:10166000CDE9015469460F48CDE903450EE00A680B
:1016700042F001020A60096801F0010105910F21A1
:101680000091CDE90154CDE903436946FFF75CF9C8
:1016900006B070BD0000014030380240000002403A
:1016A0000004004000040240704770B5044690F802
:1016B0003C0000260D4601280FD0012084F83C0094
:1016C0006AB1042A1DD0082A2FD00C2A3FD0012647
:1016D000002084F83C00304670BD022070BD2068B8
:1016E00000F0E6FE2068816941F008018161206810
:1016F000816921F004018161206881692A691143AF
:1017000011E0206800F004FF2068816941F4006165
:1017100081612068816921F480618161206881692B
:101720002A6941EA02218161D2E7206800F026FFA0
:101730002068C16941F00801C1612068C16921F0D8
:101740000401C1612068C1692A69114311E0206860
:1017500000F048FF2068C16941F40061C161206860
:10176000C16921F48061C1612068C1692A6941EAC7
:101770000221C161ACE710B5040003D094F83D002C
:1017800010B107E0012010BD002084F83C00204685
:1017900000F01EF8022084F83D00211D206800F0B2
:1017A00003FE012084F8460084F83E0084F83F00E0
:1017B00084F8400084F8410084F8420084F8430033
:1017C00084F8440084F8450084F83D00002010BDF2
:1017D0007047704710B50446022249B104290ED063
:1017E000082913D094F84100012816D0012010BD1B
:1017F00094F83E000128F9D184F83E200FE094F8D7
:101800003F000128F2D184F83F2008E094F840001E
:101810000128EBD184F8402001E084F84120012226
:10182000206800F025FE16492068164A884201D03B
:10183000904203D1436C43F40043436420688842E0
:1018400013D0B0F1804F10D00F4988420DD00F490E
:1018500088420AD00E49884207D0904205D00D49EF
:10186000884202D00C49884204D1816801F0070106
:10187000062903D0016841F001010160002010BD7C
:101880000000014000040140000400400008004046
:10189000000C0040004001400018004070477047B5
:1018A00070477047F8B5016804460868CA684B6914
:1018B00010F00F0F4FF0000559D003F0010602F4AD
:1018C0009077374365D0C10705D0D10503D5216C8A
:1018D00041F001012164410705D5D90703D0216CEE
:1018E00041F002012164810705D5D90703D0216C9D
:1018F00041F004012164010707D502F020013143C2
:1019000003D0216C41F008012164216C00293AD0F8
:10191000800604D5900602D5204600F06BFF2068B3
:101920004069216CC0F38010090700D460B32046E1
:1019300000F02BFF20684069400621D52068143054
:1019400050E8001F21F0400140E80012002AF5D1C4
:10195000A06BA8B16C490165A06BFEF75FFE002883
:1019600011D0A06B016D01B0BDE8F04008478306BF
:101970000FD593060DD52046BDE8F84000F03ABFDC
:101980002046FFF78EFFF8BD2046FFF78AFF25644B
:10199000F8BD266B2023012E79D1C60677D5D60651
:1019A00075D50868486800904869400640D5A16B25
:1019B000086840680004000CEAD0A28D8242E7D992
:1019C000E085C869B0F5807F2DD020680C3050E8E4
:1019D000001F21F4807140E80012002AF5D1206830
:1019E000143050E8001F21F0010140E80012002AE5
:1019F000F5D12068143050E8001F21F0400140E884
:101A00000012002AF5D184F83E30256320680C309E
:101A100050E8001F21F0100140E80012002AF5D123
:101A2000A06BFEF7B2FDA08DE18D401A81B229E0D6
:101A3000A08DE18D401A81B2E08D0028A8D0002948
:101A4000A6D020680C3050E8002F22F4907240E8B5
:101A50000026002EF5D12068143050E8002F22F027
:101A6000010240E80026002EF5D184F83E302563BF
:101A700020680C3050E8002F22F0100240E80023CC
:101A8000002BF5D12046FFF70BFFF8BDFFE7050659
:101A90002BD5150629D594F83D002128F5D1A0684D
:101AA000B0F5805F01D12069B0B1206A411C21628C
:101AB000216800784860E08C401E0004000CE0843F
:101AC000E3D12068C16821F08001C1602068C1684D
:101AD00041F04001C160D8E7206A0088C0F30800E7
:101AE0004860206A801C2062E5E74006CDD550069C
:101AF000CBD5CA68204622F04002CA6084F83D3047
:101B000000F0C5F9C1E700009526000870B5040093
:101B100004D094F83D00002510B106E0012070BD0E
:101B200084F83C50204600F023F8242084F83D003F
:101B30002068C16821F40051C160204600F0BAFE5F
:101B40002068016921F4904101612068416921F018
:101B50002A0141612068C16841F40051C1602564D7
:101B6000202084F83D0084F83E00002070BD000075
:101B70002DE9F04F87B0044614216846FEF702FCB9
:101B80006848DFF89C81D4F800C066491038022606
:101B900003220827644B00254FF0400B4FF00069EB
:101BA0004FF4806AC4454FD1D1F800C04CF4002CEA
:101BB000C1F800C0096801F400210591016841F0F5
:101BC000040101600068CDE9025200F004000590B4
:101BD0009002CDE90006694604971846FEF7B4FE68
:101BE000534E52484F463060C6E90195C6E9035A44
:101BF0004FF480797561C6E906593562D0463046A2
:101C00007562FEF7EDFD08B1FEF7BDFCA663B46397
:101C1000474E464860363030C6E903587561C6E91C
:101C200006593562756286E881083046FEF7D8FDB0
:101C300008B1FEF7A8FC6663002211463420B463A5
:101C4000FEF7E8FF342065E0DFF8E880C44563D1A3
:101C5000D1F800C04CF4801CC1F800C0096801F440
:101C600080110591016841F004010160016801F0F3
:101C700004010591016841F0080101600068CDE9A7
:101C8000025200F0080005904FF48050CDE90006A4
:101C90009046694604971846FEF756FE0420CDE9A3
:101CA0000006CDE90258694604972348FEF74CFE2A
:101CB0001F4E1E48C03630383060C6E90195C6E96F
:101CC000035A7561B561F56135624F46D0463046BD
:101CD0007562FEF785FD08B1FEF755FCA663B46397
:101CE000164E1248C6E903587561B561F561356253
:101CF0007830756286E881083046FEF771FD08B1DC
:101D0000FEF741FC6663002211463520B463FEF7FE
:101D100081FF3520FEF770FF07B0BDE8F08F0000AF
:101D2000004C004040380240000802404060024041
:101D30006C02002000500040000C02408C03002088
:101D400090F83E30202B0ED159B152B190F83C3072
:101D5000012B08D0012380F83C300023036300F0FE
:101D60002FBE0120704702207047000070B5154952
:101D7000884226D114A11748FEF7EEFA82B24FF638
:101D8000FF7314490F4800F029F8124B803318787C
:101D9000552816D15878AA2813D1002003F11C0425
:101DA00019188A78225422188D7915718D7A157236
:101DB0008D7B15738D7C1574897D401C11750428ED
:101DC000EED370BDE4010020737563636573732106
:101DD0000000000010000020704700002DE9F843CB
:101DE000044690F83D001F4616460D4620284CD16B
:101DF000C5B1BEB194F83C00012846D0012084F85A
:101E00003C004FF00008C4F84080212084F83D00D9
:101E1000FEF792FEA6848146E684A068B0F5805F56
:101E200003D004E00120BDE8F883206928B12E46E4
:101E30005FF0000584F83C800EE00026FAE7802180
:101E4000204600F007FEA0B9AEB116F8010B2168DC
:101E50004860E08C401EE084E08C4B464FF000026E
:101E600000970028EBD14FF04001204600F0F2FD32
:101E700030B10320D7E735F8020BC0F30800E6E7DE
:101E8000202084F83D000020CDE70220CBE77047FA
:101E9000FEE70000154808B5016841F40011016033
:101EA0000068002200F40010009011460B20FEF79D
:101EB000B1FE0B20FEF7A0FE002211460D20FEF71A
:101EC000A9FE0D20FEF798FE002211460F20FEF716
:101ED000A1FE0F20FEF790FE002211462F20FEF7F4
:101EE00099FEBDE808402F20FEF786BE303802403C
:101EF000114808B5016841F001010160016801F075
:101F000001010091016841F002010160016801F0E6
:101F100002010091016841F004010160016801F0D3
:101F200004010091016841F008010160006800F0BF
:101F30000800009008BD00003038024010B596B08F
:101F400000240F9410941194129413941C21684649
:101F50001494FEF717FA202107A8FEF713FA344865
:101F6000324901601F21C0E901146321C0E9031453
:101F700044618461FFF7AAF908B1FEF704FB4FF44E
:101F800080500F900FA92A48FFF70CFA08B1FEF70E
:101F9000FAFA2748FFF7EFFB08B1FEF7F4FA1394BB
:101FA00013A923481494FFF749F908B1FEF7EBFA97
:101FB0006020CDE900040294039404940594002267
:101FC00069461B480694FFF770FB08B1FEF7DBFA81
:101FD000042269461648FFF768FB08B1FEF7D3FAFA
:101FE000082269461248FFF760FB08B1FEF7CBFAFA
:101FF0000C2269460E48FFF758FB08B1FEF7C3FAFA
:102000000794089409944FF400500A94CDE90B40CA
:1020100007A907480E94FFF7E7F808B1FEF7B3FAEF
:102020000348FFF7E1FA16B010BD000000000140C0
:10203000C400002010B58EB00024079408940994C1
:102040000A940B941C2168460C94FEF79BF92948CE
:102050004FF0804101601F21C0E901146321C0E9F4
:1020600003148461FFF732F908B1FEF78CFA4FF4DC
:102070008050079007A91F48FFF794F908B1FEF7B1
:1020800082FA1C48FFF777FB08B1FEF77CFA0B9445
:102090000BA918480C94FFF7D1F808B1FEF773FAB2
:1020A0006020CDE90004029400226946114804949E
:1020B000FFF7FBFA08B1FEF766FA042269460D48FD
:1020C000FFF7F3FA08B1FEF75EFA082269460948FD
:1020D000FFF7EBFA08B1FEF756FA0C2269460548FD
:1020E000FFF7E3FA08B1FEF74EFA0248FFF77CFA71
:1020F0000EB010BD0C01002010B58EB00024079466
:10210000089409940A940B941C2168460C94FEF7D9
:1021100039F92A48284901601F21C0E901146321C7
:10212000C0E903148461FFF7D1F808B1FEF72BFA78
:102130004FF48050079007A92048FFF733F908B102
:10214000FEF721FA1D48FFF716FB08B1FEF71BFA50
:102150000B940BA919480C94FFF770F808B1FEF71F
:1021600012FA6020CDE90004029400226946134867
:102170000494FFF79AFA08B1FEF705FA04226946BB
:102180000E48FFF792FA08B1FEF7FDF908226946FA
:102190000A48FFF78AFA08B1FEF7F5F90C226946FA
:1021A0000648FFF782FA08B1FEF7EDF90348FFF79A
:1021B0001BFA0EB010BD00000004004054010020C6
:1021C0001CB500240F4800940D490194016042F2AF
:1021D000CF01C0E9011442F20F718461C160FFF7C1
:1021E00075F808B1FEF7CFF90094694605480194E7
:1021F000FFF724F8002801D0FEF7C5F91CBD000048
:10220000001400409C0100200C4810B50A490160F0
:102210004FF4E1314160002181600C22C160C0E9CE
:1022200004128161C161FFF771FC002803D0BDE891
:102230001040FEF7A8B910BD004C0040E40100209A
:102240000C4810B50A4901604FF46131416000212A
:1022500081600C22C160C0E904128161C161FFF795
:1022600055FC002803D0BDE81040FEF78CB910BD26
:102270000050004028020020FEE7FEE710B50021D4
:102280001848FFF7A7FA04211648FFF7A3FA082118
:102290001448FFF79FFA0C211248FFF79BFA002120
:1022A0001148FFF797FA04210F48FFF793FA082126
:1022B0000D48FFF78FFA0C210B48FFF78BFA00212E
:1022C0000A48FFF787FA04210848FFF783FA082134
:1022D0000648FFF77FFABDE810400C210348FFF7DE
:1022E00079BA0000C40000200C0100205401002035
:1022F00070477047FEF726BC30B593B03021684672
:10230000FEF740F814210CA8FEF73CF81D48002504
:10231000016841F080510160006800F08050119028
:102320001948016841F4804101600068022400F40A
:102330008040119001200390102004900094069496
:102340000820CDE90750A820CDE9090404200B900E
:102350006846FEF77DFD08B172B6FEE70CA90F20B6
:1023600081E831004FF4A0500F904FF4805010904E
:1023700005210CA8FEF780FC002801D072B6FEE70C
:1023800013B030BD40380240007000400248016880
:1023900041F470010160704788ED00E00148FFF7EB
:1023A00070B800009C010020F0B50268254C264D55
:1023B000264E274F274B4FF0804CA04209D0604556
:1023C00007D0A84205D0B04203D0B84201D098420D
:1023D00004D122F0700E4A6842EA0E02A0421BD0DD
:1023E000604519D0A84217D0B04215D0B84213D0DA
:1023F000984211D0184DA8420ED0184DA8420BD0CB
:10240000174DA84208D0174DA84205D0164DA84236
:1024100002D0164DA84203D122F44075CA682A435F
:102420004D6922F080022A4302608A68C2620A680B
:102430008262A04201D0984201D109690163012161
:102440004161F0BD00000140000400400008004070
:10245000000C0040000401400040014000440140E5
:102460000048014000180040001C004000200040CF
:1024700010B501F01F030121046A99408C430462E6
:10248000016A9A401143016210BD10B5846842EAA6
:10249000032224F47F440A432243826010BD8268F1
:1024A00022F070020A4342F0070181607047000089
:1024B000F0B5026A22F001020262036A426884698E
:1024C000124E24F073050C682C4323F002058B6830
:1024D0002B430D4DA84201D0B04205D123F008078F
:1024E000CB683B4323F00403A84201D0B04205D19E
:1024F0004D6922F4407215438A692A43426084611F
:10250000496841630362F0BD0000014000040140DE
:10251000F0B5026A22F010020262026A436884691E
:102520000D6824F4E64444EA05248D6822F0200274
:1025300042EA05120F4D104EA84201D0B04206D11A
:10254000CF6822F0800242EA071222F04002A8423D
:1025500001D0B04207D14D6923F4406343EA8503BB
:102560008D6943EA8503436084614968816302623F
:10257000F0BD00000000014000040140F0B5026A17
:1025800022F480720262026A4368C46922F4007213
:1025900024F073050C68124E2C438D6842EA052224
:1025A0000E4DA84201D0B04206D1CF6822F400629D
:1025B00042EA072222F48062A84201D0B04207D149
:1025C0004D6923F4405343EA05138D6943EA05132B
:1025D0004360C4614968C1630262F0BD000001400C
:1025E0000004014030B5026A22F480520262046A9B
:1025F0004268C3690D6823F4E64343EA05238D6806
:1026000024F4005444EA0534084DA84202D0084D91
:10261000A84204D14D6922F4804242EA8512426008
:10262000C36149680164046230BD000000000140DC
:102630000004014010B5036A046A24F00104046236
:10264000846924F0F00444EA021423F00A020A43E5
:102650008461026210BD10B5036A23F010030362A7
:102660008369046A23F4704343EA023224F0A0032E
:1026700043EA01118261016210BD00000148FFF7C9
:1026800011B90000E40100200148FFF70BB9000078
:102690002802002010B5806B0021C185C184FFF79E
:1026A00000F910BD70B5846B2068406994F83D1046
:1026B000C0F3C0100025212904D118B1E5842046BB
:1026C00000F08AF82068406994F83E10C0F380104A
:1026D000222904D118B1E585204600F056F8206C77
:1026E00040F0100020642046FFF7DBF870BD10B505
:1026F0000146806B09680968C9052FD40021C1858E
:1027000001680C3151E8002F22F4807241E8002367
:10271000002BF5D10168143151E8002F22F001029D
:1027200041E80023002BF5D10168143151E8002F56
:1027300022F0400241E80023002BF5D1202180F84F
:102740003E10016B012909D101680C3151E8002FBD
:1027500022F0100241E80023002BF5D1016B012982
:1027600002D0FFF703FB10BD818DFFF799F810BD74
:1027700010B5806B016B012902D0FFF72DFB10BD56
:10278000818D4908FFF78CF810BD01680C3151E8C4
:10279000002F22F4907241E80023002BF5D101684C
:1027A000143151E8002F22F0010241E80023002BF0
:1027B000F5D1016B012909D101680C3151E8002FD5
:1027C00022F0100241E80023002BF5D1202180F8EF
:1027D0003E1000210163704701680C3151E8002F61
:1027E00022F0C00241E80023002BF5D1202180F81F
:1027F0003D10704708B590F83E10222901D0022004
:1028000008BD82684FF480539A4201D1016921B119
:10281000816A9A421BD04AB10AE00268816A526812
:10282000C2F308020A80816A891C08E0026972B159
:102830000268526802F07F020A70816A491C816254
:10284000C18D491E0904090CC18503D019E0026835
:102850005268F1E70168CA6822F02002CA60016884
:10286000CA6822F48072CA6001684A6922F00102D3
:102870004A61202180F83E10016B012903D0FFF747
:1028800075FA002008BD0021016301680C3151E890
:10289000002F22F0100241E80023002BF5D101683F
:1028A0000A68D20602D50A6849680091818DFEF750
:1028B000F7FFE6E770B5044600680169E26821F4B5
:1028C0004051114301612169A068E26908436169CF
:1028D000114308432168CA6849F20C639A430243D2
:1028E000CA6020684169A26921F4407111434161C5
:1028F00031492068884202D03049884202D1FEF72F
:1029000065FA01E0FEF752FAE26900231921642515
:102910003226B2F5004F626828D0A0FB0101930F68
:102920009200FDF7A1FC0146B0FBF5F06FF0180234
:10293000504301EB800006EB0010B0FBF5F000F017
:10294000F002B1FBF5F002EB0012B1FBF5F06FF015
:102950001803584301EB800006EB0010B0FBF5F0C4
:1029600000F00F0021681044886070BDA0FB0101D9
:1029700092185B41FDF778FC0146B0FBF5F00201CF
:10298000B1FBF5F06FF01803584301EB800006EB44
:10299000C000B0FBF5F000F0F80002EB4002B1FB24
:1029A000F5F0584301EB800006EBC000B0FBF5F0FA
:1029B00000F00700D6E700000010014000140140BD
:1029C00038B58162828500251346044605642220BD
:1029D00084F83E00A26B1C48D063A26B1B481064B5
:1029E000A26B1B48D064A06B0A4605652168A06BEA
:1029F000091DFDF75FFF206801684068009084F8BA
:102A00003C50206948B120680C3050E8001F41F468
:102A1000807140E80012002AF5D12068143050E897
:102A2000001F41F0010140E80012002AF5D12068A2
:102A3000143050E8001F41F0400140E80012002A25
:102A4000F5D1002038BD0000EF26000871270008EE
:102A5000A52600082DE9F041984617460E46044683
:102A6000069D27E0681C25D02DB1FEF765F8A0EB88
:102A70000800A8421ED920680C3050E8001F21F43D
:102A8000D07140E80012002AF5D12068143050E8D7
:102A9000001F21F0010140E80012002AF5D120209A
:102AA00084F83D0084F83E00002084F83C000320B8
:102AB000BDE8F0812068006836EA000004D00020FC
:102AC000B842CFD00020F3E70120F9E7FEE709077D
:102AD000090E002804DB00F1E02080F800147047A4
:102AE00000F00F0000F1E02080F8141D7047000096
:102AF000FEF730F8FFF700FCFFF7FAF9FFF760FB8D
:102B0000FFF79EFBFFF71AFAFFF794FAFFF7F4FAC4
:102B1000FFF7C0F9FFF778FBFFF7B0FB00F020F8F4
:102B20001C2204490448FFF70BF900BF00F006F827
:102B3000FCE7000090000020E401002030B5074DC4
:102B4000002405EB8401601CC0B291ED000A00F086
:102B5000B1F8641C062CF4D330BD0000AC0000209A
:102B60002DE9F041504D3C26286846632868002432
:102B700084634FF47A784046FDF7D4FE28684463B6
:102B8000286884634FF4FA773846FDF7CBFE28684F
:102B90004463286886634046FDF7C4FE28684463A2
:102BA000286884632868C663286804644046FDF783
:102BB000B9FE2868C463286804643846FDF7B2FE8D
:102BC0002868C463286806644046FDF7ABFE2868A1
:102BD000C46328680464354D2868466328688463A4
:102BE0004046FDF79FFE28684463286884633846A2
:102BF000FDF798FE28684463286886634046FDF721
:102C000091FE28684463286884632868C66328683E
:102C100004644046FDF786FE2868C463286804649F
:102C20003846FDF77FFE2868C4632868066440467E
:102C3000FDF778FE2868C463286804641C4D286882
:102C40004663286884634046FDF76CFE2868446349
:102C5000286884633846FDF765FE28684463286861
:102C600086634046FDF75EFE2868446328688463F7
:102C70002868C663286804644046FDF753FE286848
:102C8000C463286804643846FDF74CFE2868C463B2
:102C9000286806644046FDF745FE2868C463286836
:102CA0000464BDE8F0810000C40000200C01002095
:102CB0005401002030B5F1EE400ABCEEC01AFCEE23
:102CC000E00A3C4C3C4A00213C4B07286AD2DFE832
:102CD00000F0692816045E4C3A003648B5EEC00A8A
:102CE000F1EE10FA006805DD11EE105A4563206818
:102CF000816304E04163256810EE900AA863B5EE95
:102D0000C00AF1EE10FA06DD256811EE100AE8633C
:102D10002068016405E02068C163246810EE900A11
:102D20002064B5EEC00AF1EE10FA06DD146811EE6B
:102D3000100A60631068816305E0106841631468DD
:102D400010EE900AA063B5EEC00AF1EE10FA06DDAF
:102D5000146811EE100AE0631068016405E0106861
:102D6000C163126810EE900A1064B5EEC00AF1EE6D
:102D700010FA06DD1A6811EE100A506318688163B4
:102D800005E0186841631A6810EE900A9063B5EE8A
:102D9000C00AF1EE10FA06DD1A6811EE100AD063CF
:102DA0001868016430BD1868C163196810EE900A94
:102DB000086430BDC40000200C0100205401002034
:102DC0004FF04070E1EE100A704700000000000074
:102DD00000000102030406070809000000000102C8
:102DE0000304000610160006101600000C2E000842
:102DF0000000002010000000C40100081C2E000884
:102E000010000020400A0000E00100080024F40047
:0C2E1000010000001000000000000000A5
:040000050800018965
:00000001FF
