:020000040800F2
:10000000605C00208102000873310008BD2D0008EB
:1000100071310008B1140008915D00080000000073
:10002000000000000000000000000000DD53000898
:10003000A9160008000000002F1400083541000830
:10004000BB020008BB020008BB020008BB0200089C
:10005000BB020008BB020008BB020008BB0200088C
:10006000BB020008BB020008BB020008D51500084F
:10007000BB020008BB020008BB020008BB0200086C
:10008000BB020008BB020008BB020008BB0200085C
:10009000BB020008BB020008BB020008BB0200084C
:1000A000BB020008BB020008BB020008BB0200083C
:1000B000BB020008BB020008BB020008BB0200082C
:1000C000BB020008BB020008BB020008BB0200081C
:1000D000BB020008855D0008BB020008BB020008E7
:1000E000BB020008BB020008BB020008BB020008FC
:1000F000BB020008BB020008BB020008E1150008B3
:10010000BB020008BB020008BB020008BB020008DB
:10011000BB02000859570008BB020008BB020008D8
:10012000BB020008BB020008ED150008BB02000876
:10013000BB0200080000000000000000BB02000835
:10014000BB020008BB020008BB020008BB0200089B
:10015000BB020008BB020008F9150008BB0200083A
:10016000BB020008BB020008BB020008BB0200087B
:10017000BB020008BB0200080000000000000000F5
:10018000BB020008BB02000800F002F800F069F8AA
:100190000AA090E8000C82448344AAF10107DA45E2
:1001A00001D100F05EF8AFF2090EBAE80F0013F0CB
:1001B000010F18BFFB1A43F001031847F86A00004B
:1001C000186B00000A444FF0000C10F8013B13F0CC
:1001D000070408BF10F8014B1D1108BF10F8015BA0
:1001E000641E05D010F8016B641E01F8016BF9D193
:1001F00013F0080F1EBF10F8014BAD1C0C1B09D1EA
:100200006D1E58BF01F801CBFAD505E014F8016B5B
:1002100001F8016B6D1EF9D59142D6D370470000ED
:100220000023002400250026103A28BF78C1FBD8FF
:10023000520728BF30C148BF0B607047662906F0DF
:10024000AF84002070471FB506F0A5FC00F080FBCE
:1002500004000020002106F011FCE0601FBD10B575
:1002600010BD00F075FC1146FFF7EDFF06F034F805
:1002700000F093FC03B4FFF7F2FF03BC00F0D6FCE0
:10028000DFF84400016841F470010160BFF34F8F53
:10029000DFF83800016821F040410160BFF36F8F43
:1002A0000B4880470B480047FEE7FEE7FEE7FEE706
:1002B000FEE7FEE7FEE7FEE7FEE7FEE70648074942
:1002C000074A084B7047000088ED00E034EF00E07B
:1002D000755400088901000860560020605C002009
:1002E000605800206058002072B6704762B67047B0
:1002F000EFF3108072B6704780F31088704730BFFC
:10030000704720BF7047B0FA80F0704790FAA0F0B5
:10031000B0FA80F0704790FAA0F0704753EA020CF0
:1003200000F069802DE9F04B4FF00006002B1FBF55
:10033000B3FA83F503FA05F424FA05F65E4012BF1A
:100340001643B2FA82F502FA05F4C5F120051EBF84
:1003500022FA05FC44EA0C04203556EA044C4FEA24
:10036000144418BF641C4FF000084FF0000990427D
:1003700071EB030C39D3002919BFB1FA81F701FAE7
:1003800007F6B0FA80F700FA07F6C7F120071EBF9C
:1003900020FA07FC46EA0C062037B6FBF4FCA7EB74
:1003A0000507103F07F01F0BCBF120060CFA0BFBE3
:1003B0002CFA06F644BFB3460026202FA4BF5E46A3
:1003C0004FF0000B5BEA060C08BF4FF0010B19EB76
:1003D0000B09ABFB027C48EB0608C01B06FB02CCFA
:1003E0000BFB03CC71EB0C01C1E70B460246414607
:1003F0004846BDE8F08B13B54FF000004FF0000108
:10040000AFF30080BDE81C40704700000FB41CB57E
:10041000084B06AA7B4469460090059800F07FFAD5
:1004200004460020694600F08DFA20461CBC5DF8A9
:1004300014FB00002D0500002DE9F0410E46044696
:10044000002020622046E168884730B3252805D087
:10045000D4E901219047206A401CF2E7E168204678
:1004600000278847050018D0A5F14100192802D8B7
:1004700020354FF400673246294620462760FFF7B3
:10048000DDFE40B1012804D0F61D26F0070608362F
:10049000D8E7361DD6E72846DAE7206ABDE8F081BE
:1004A0004FF0000200B5134694469646203922BF0D
:1004B000A0E80C50A0E80C50B1F12001BFF4F7AF58
:1004C000090728BFA0E80C5048BF0CC05DF804EB3A
:1004D000890028BF40F8042B08BF704748BF20F8A8
:1004E000022B11F0804F18BF00F8012B70477047A6
:1004F0007047704770472DE9FF4F0C461E464FF07E
:10050000FF378BB0D2E90001DDF860800A908A469F
:10051000C1F30A5505B93D46002108464FF00000D9
:10052000BAF1000F00F4400005DA00EB80004FF450
:10053000400101EA50004FEA9059B9F1010F00DD86
:10054000B9460A9850EA4A000ED044F61050A5F277
:10055000FF3545432F14B8F1000F1ED07542291EF8
:100560001EDDC9F100021CE0B8F1010F4FF00000E0
:1005700001D0302103E0F24305E02154401CB04299
:10058000FBDB30460022002121540B99C1F8088082
:10059000C1E900200FB0BDE8F08FBD1B6D1CDEE788
:1005A0004A4600DA694206A800F05CFA06AB93E816
:1005B000070003AB83E8070050460A9900F03DFBB3
:1005C0008DE80700A0F500501F3800900398002D1B
:1005D0000ADD42F21F014A460844002303A90390A2
:1005E000684600F0A6FD09E0A0F500504A461F3815
:1005F000002303A90390684600F0B0FD8DE80700D2
:100600000004000C03D04FF0FF30410800E010461A
:10061000B8F1000F03D00022009215461EE0751EAF
:1006200005D400F099F9303262556D1EF9D5B34604
:100630000122084302D000227F1C04E020783028E9
:1006400001D100227F1E002A099784D01DE0112DC0
:1006500007DA00F081F9303262556D1C50EA010270
:10066000F5D1084302D00098C8B10EE00021681E01
:1006700005E0235C625C63542254401E491C8142A5
:10068000F7DBAB46A81B401E0990002004F80B00C6
:100690000B98099AC0F80880C0E9002B7AE7112668
:1006A0004FF0000857E72DE9F04F88460446D21D69
:1006B00022F0070191B0D1E90001CDE90A0105F06E
:1006C00055FC02460B98C00F01D02D2007E0206892
:1006D000810701D52B2002E0202101EAC000032A76
:1006E000099001D0072A05DB03464146204600F069
:1006F00079F90BE12078800601D5E06900E0062059
:10070000B8F1650F814606D0B8F1660F18D0B8F180
:10071000670F70D131E00020B9F1110F009001DBBB
:10072000112301E009F101030AAA01A90CA8FFF7AE
:10073000E2FEDDE90C70002609F10105834647E081
:1007400001204B4600904FF000470AAA01A90CA8CF
:10075000FFF7D1FEDDE90DB00C995D46002610B91A
:1007600009F101000D18B9EB050003D4C0F1FF3603
:1007700009F10105A5EB09002BE0B9F1010F01DA40
:100780004FF001090020B9F1110F0090484601DD3A
:10079000112300E003460AAA01A90CA8FFF7ABFE4B
:1007A000DDE90C704D4600268346207800070AD408
:1007B000AB4500DA5D4601A8012D04DD411911F8B1
:1007C000011C302907D04F4502DA17F1040F04DA73
:1007D000012082460FE06D1EEEE7002F02DCED1BCC
:1007E0003E4403E0781CA84200DD7D1CB81B00F1EC
:1007F000010A4FF000472078000703D4AA4501DB27
:100800004FF0FF3A0021B7F1004F0DF143088DF88A
:10081000431024D002202B23002F01DA7F422D2306
:100820000A21021EA0F1010000DC5FB197FBF1FC80
:1008300097FBF1F201FB1C7C17460CF1300C08F819
:1008400001CDEEE7A8F1010003702188090501D56B
:10085000452100E06521A0F1010800F8011C09987C
:100860000FA9A1EB0807FF1D00B10120411901EB01
:10087000EA70A1693844081A401EA0612078C006B9
:1008800002D42046AFF30080099828B1D4E90121B1
:100890009047206A401C20622078C00622D520465E
:1008A000AFF300801EE0002E04DBB34502DD01A89B
:1008B000805D00E03020D4E901219047206A401C8F
:1008C0002062761CAAF101005FEA000A0AD100F05A
:1008D0003FF8C0680168405CD4E901219047206A74
:1008E000401C2062281EA5F10105DCDC07E0D4E9EC
:1008F000012118F8010B9047206A401C2062381E25
:10090000A7F10107F3DC2046AFF30080032011B00C
:1009100041E6000001694A1C02610878704700B591
:100920008FB0CDE901310021059105497944CDE928
:10093000031011466846FFF77FFD0FB000BD0000B1
:10094000E5FFFFFF0A6802F8010B0A60704700002C
:10095000004870472056002030B5B0F10A024FEA37
:10096000900E71F100034EEA817EB0EB0E0061EB58
:1009700091014FEA101E4EEA017E10EB0E0041EB92
:1009800011114FEA102E4EEA016E10EB0E0041EBF2
:1009900011214FEA104E4EEA014E10EB0E0041EBD2
:1009A0001141401841F100014FEAD00040EA417086
:1009B0004FEAD10110EB80054FEA810444EA9074BC
:1009C00044EB01046D1944EB0404521BA3414FF0A6
:1009D000000348BF0A3200D530BD401C41F1000180
:1009E00030BD00002DE9F0411F4604460326016892
:1009F000072A01F4006004DB08B116A505E016A57E
:100A000003E008B115A500E015A521F01000206055
:100A1000A069C01EA0610FB1401EA0612046AFF3C7
:100A200000804FB1D4E9012138469047206A401C2C
:100A30002062C01C206206E0206AFAE7D4E90121A6
:100A400015F8010B9047761EF8D22046AFF30080D0
:100A5000BDE8F0814E414E006E616E00494E460089
:100A6000696E66002DE9F047814616468AB0354822
:100A700078440DC88DE80D0032487844801C03ACE2
:100A80000DC884E80D0041F69B300844372190FBE7
:100A9000F1F290FBF1F5A5F1800501FB12041B3C7E
:100AA00002D56442012000E00020DFF898A08046D3
:100AB0000027FA44AAF1BE0A0EE0E0070AD0324647
:100AC000684607EB470101230AEB810100F046FB72
:100AD0008DE8070064107F1C002CEED1194F7F4475
:100AE000AE3F19E0E80715D007EB04100DF1180A26
:100AF00090E80E008AE80E00C068F04201D1981913
:100B000008903246012306A903A800F027FB03AB97
:100B100083E807006D10641C002DE3D14FF0010342
:100B200032466946B8F1000F03A802D000F001FB7D
:100B300001E000F013FBC9E90001C9F808200AB080
:100B4000BDE8F0872862000000487047005600208A
:100B50007546FFF7F9FFAE4605006946534620F09B
:100B60000700854618B020B5FFF7A8FBBDE8204078
:100B70004FF000064FF000074FF000084FF0000B59
:100B800021F00701AC46ACE8C009ACE8C009ACE80C
:100B9000C009ACE8C0098D46704710B50446AFF3F4
:100BA00000802046BDE81040FFF764BB4FF0013CD9
:100BB00050F8042B51F8043B9A4221D1A2EB0C03CC
:100BC000934313EACC1317D150F8042B51F8043B8C
:100BD0009A4215D1A2EB0C03934313EACC130BD129
:100BE00050F8042B51F8043B9A4209D1A2EB0C03B4
:100BF000934313EACC13DBD04FF00000704700BFE3
:100C0000D01A01BAB1FA81F101F0180122FA01F00B
:100C1000CB40C1F12001DBB2C0B2C01A2CFA01F303
:100C2000D11A914311EAC311E6D170470149182046
:100C3000ABBEFEE72600020070475FEA400C08BF2B
:100C400091F0000F4FEA8C234FEAC12243EA515141
:100C50004FEA1C5018BF00F5F0404FEA300018BFB3
:100C600041F000415FEA6C5C00F02980BCF1FF3F7D
:100C700008BF40F080407047130C06BF12044FF0CD
:100C8000100C4FF0000C130E04BF12020CF1080CF4
:100C9000130F04BF12010CF1040C930F04BF920058
:100CA0000CF1020CD30F04BF52000CF1010C1146E1
:100CB0004FF00002A0F11F00A0EB0C00704711F0F4
:100CC000004F08BF704731F000413FF4D5AF0B0C27
:100CD00006BF09044FF0100C4FF0000C0B0E04BFC0
:100CE00009020CF1080C0B0F04BF09010CF1040CF4
:100CF0008B0F04BF89000CF1020CCB0F04BF49001D
:100D00000CF1010CCCF12003A0EB0C0022FA03F350
:100D100002FA0CF241EA030100F10100704720F0F1
:100D20007F4C80EA030023F07F47ACEB070303F519
:100D30007C5300F0004003F1FF032DE980494FEAA6
:100D4000154B09B44FEA144325EA0B4E24EA034835
:100D50000FF2042606EB132749083E785FEA3202B9
:100D600003FB0667C7F5000707FB06F64FEA543793
:100D70004FEAD64606F1020607FB066CCCF1005C92
:100D80004FEA1C472CEA074C07FB06F40CFB06F560
:100D900004EB15464FEA961634BF00204FF0004092
:100DA0004FEAD13706FB07FC4FEA1C4C0CFB0BF754
:100DB000D21B03FB0CF761EB07010CFB0EF7B0EB4A
:100DC000074072EB17420CFB08F734BFA2EB074257
:100DD000B2EB074261EB17414FEA0C444FEA91072F
:100DE00006FB07FC4FEA1C4C0CFB0BF7B0EBC740B3
:100DF00072EB573203FB0CF734BFA2EBC742B2EBE6
:100E0000C74261EB57310CFB0EF7B0EBC70072EB3A
:100E100057720CFB08F734BFA2EBC702B2EBC70254
:100E200061EB5771039F4FEA816141EA921104EB34
:100E3000CC044FEAD1374FEA826206FB07FC42EA54
:100E400090124FEA80604FEA1C4C0CFB0BF7D21B50
:100E500003FB0CF761EB07010CFB0EF7B0EB07404F
:100E600072EB17420CFB08F734BFA2EB0742B2EB60
:100E7000074261EB17414FEA8C554FEA910704EBAB
:100E80009C2406FB07FC4FEA1C4C0CFB0BF7B0EB59
:100E9000C74072EB573203FB0CF734BFA2EBC742DB
:100EA000B2EBC74261EB57310CFB0EF7B0EBC7005A
:100EB00072EB57720CFB08F734BFA2EBC702B2EB20
:100EC000C70261EB577115EB4C254FEA816141EA8E
:100ED00092114FEA82624FEAD13742EA901206FB42
:100EE00007FC44F100044FEA80604FEA1C4C0CFB05
:100EF0000BF7D21B03FB0CF761EB07010CFB0EF7A2
:100F0000B0EB074072EB17420CFB08F734BFA2EBC3
:100F10000742B2EB074261EB174115EB1C154FEA94
:100F2000813141EA92414FEA823242EA90424FEAED
:100F300080304FEA0C7644F1000448EA03434EEA5D
:100F40000B484FF0000EB2EB080C71EB030724BF07
:100F5000624639464EEB0E0E4FF0000B0018524120
:100F600049414BEB0B0BB2EB080C71EB03077BF128
:100F7000000B24BF624639464EEB0E0E4FF0000BBD
:100F80000018524149414BEB0B0BB2EB080C71EBD3
:100F900003077BF1000B24BF624639464EEB0E0E71
:100FA00051EA020718BF46F0010616EB0E7655F11E
:100FB000000254F1000103D5BDE88901BDE80088B5
:100FC000BDE88901BDE80048B619524141EB010175
:100FD000A3F10103704780807F7E7D7C7B7A7978E6
:100FE000777676757473727171706F6E6E6D6C6CEE
:100FF0006B6A6A6968686766666564646363626190
:101000006160605F5F5E5E5D5D5C5C5B5B5A5A5910
:10101000595858575756565555555454535352527C
:101020005251515050504F4F4F4E4E4D4D4D4C4CD4
:101030004C4B4B4B4A4A4A4949494848484747471D
:10104000474646464545454444444443434343425A
:10105000424242414141002B9C4630D477002BD084
:101060001CB54FEA370703B44FF010004FF01001E2
:10107000BAF1000F06D0BCF1000FDCBF40F0080051
:1010800040F008014FF000000FBCBDE810400BF12C
:10109000010BBBF1010F08BF5FEA170722BF12F176
:1010A000010211F101014FF0004143F1000300F092
:1010B000004043EA00007047F9D35708D0E746EAFA
:1010C000064613F1400F4FEA16461FDD13F1200FBD
:1010D000DFBF16430A46002120335B42BED0C3F176
:1010E000200746EA064602FA07F74FEA164646EA9E
:1010F0000706C3F1200722FA03F201FA07F721FAE3
:1011000003F14FF0000342EA0702A7E746EA0206AE
:1011100046EA06464FEA164646EA0106BCBF46EADC
:101120000646360C4FF000034FF000024FF000016E
:1011300094E72DE9804C9A46934670B491E83800C4
:1011400007C831EA400C48BF34EA430C03D5FFF727
:10115000E6FDFFF780FFF0BCBDE8008C2DE9804C78
:101160009A46934670B491E8380007C810F0804F53
:1011700008BF13F0804F03D100F005F8FFF76BFFB5
:10118000F0BCBDE8008C20F07F4780EA030023F02C
:101190007F4C07EB0C03A3F57C5300F00040A3F158
:1011A000FE0392F0000F00F0B38095F0000F00F006
:1011B00077802DE901494FEA11404FEA144621EAB0
:1011C000004800FB06FC24EA064708FB06F607FB7E
:1011D00008F800FB07F718EB06484CEB164C4FEAF3
:1011E000124B18EB07484FEA15464CEB174022EA22
:1011F0000B4E0BFB06FC25EA06470EFB06F607FB2B
:101200000EFE0BFB07F71EEB064E4CEB164C4FF099
:1012100000061EEB074E4CEB174B18EB0B0840F18A
:10122000000018EB0E0B58EB000840F100008F1A7D
:101230004FF000013CBFC943661B14BFB5EB040C63
:1012400000213CBFC943F61B4FEA17444EEA8E0EFD
:1012500027EA04454FEA1C4704FB07622CEA074CC7
:1012600005FB07F70CFB05F604FB0CFC16EB074629
:1012700042EB174216EB0C4642EB1C421BEB0606F8
:1012800058EB0202414146EA9E0601D5BDE80189BC
:10129000B619524141EB0101A3F10103BDE80189F7
:1012A0004FEA14454FEA114724EA054621EA074C64
:1012B00005FB07F406FB07F70CFB06F105FB0CFC2E
:1012C00011EB074144EB17444FEA124711EB0C4175
:1012D00044EB1C4422EA074C05FB07F206FB07F728
:1012E0000CFB06F605FB0CFC16EB074642EB17421F
:1012F00016EB0C4642EB1C456A1854F1000148BF3E
:101300007047B619524141EB0101A3F10103704747
:1013100095F0000F37D04FEA11424FEA144721EA07
:10132000024624EA074C02FB07F106FB07F70CFB19
:1013300006F402FB0CFC14EB074441EB17414FEAA7
:10134000154714EB0C4441EB1C4125EA074C02FB0A
:1013500007F506FB07F70CFB06F602FB0CFC16EB89
:10136000074645EB174516EB0C4645EB1C42121998
:1013700051F1000148BF7047B619524141EB0101DC
:10138000A3F1010370474FEA14454FEA114724EADD
:10139000054621EA074C05FB07F106FB07F70CFBA6
:1013A00006F24FF0000605FB0CFC12EB074241EB86
:1013B000174112EB0C4251EB1C4148BF7047921889
:1013C00041EB0101A3F1010370470000EFF3098134
:1013D00041B1F1EE101A40F8041D20ED200A244915
:1013E0000A6810607047B0EC200A02C8E1EE101ADB
:1013F00020490A68106070471F484FF0FF010170D4
:10140000002080F309881D48016881F308881C4882
:101410004FF08051016062B6FEE719484FF08051ED
:101420000160704716484FF080510160704772B6F6
:10143000EFF3098028B1203880E8F00F0C490968E3
:10144000086000B50F4880475DF804EB0E480F496F
:101450000A780270064807490A680260106890E836
:10146000F00F203080F309884EF0F40E62B670471A
:10147000D0000020D400002022ED00E0D8000020A1
:1014800004ED00E0E93F0008520000205300002076
:10149000AFF3008010B500F001FD04490968BDE814
:1014A0001040B0FBF1F002F057BE0000F86B0008EE
:1014B000FEE700000148406870470000001000E0AF
:1014C0002B4A10B529491378C8545B1CD8B2107048
:1014D0000C780023552C47D10B2846D34878503838
:1014E0000A2841D2DFE800F0050B11171D23292F30
:1014F000353B51F8020FD0614868106234E051F872
:10150000020F5062486890622EE051F8020FD062DC
:101510004868106328E051F8020F506348689063F0
:1015200022E051F8020FD063486810641CE051F8C3
:10153000020F50644868906416E051F8020FD064BE
:101540004868106510E051F8020F506548689065D2
:101550000AE051F8020FD0654868106604E051F8BF
:10156000020F506648689066137010BD005200204C
:10157000DC000020164A10B514491378C8545B1CCF
:10158000D8B210700C780023552C1CD109281BD31D
:101590004878502804D0512809D0522813D10CE0A3
:1015A000D1F80200C2F80200C888D0800BE0D1F860
:1015B00002009060C888908105E0D1F80200C2F86E
:1015C0000E00C8885082137010BD000060540020C7
:1015D000C0010020014800F0C5B80000C03800205C
:1015E000014800F0BFB8000020390020014800F099
:1015F000B9B8000080390020014800F0B3B80000FD
:10160000E039002001681823CAB2103AB2FBF3F2A5
:10161000054B6FF30901032A9B5CC36500D9091DC3
:101620008165084670470000A46B000810B50146AC
:1016300000208B698A6A4FF0C07453B1B3F5005F24
:1016400015D072B1012A0CD0022A0AD0032A09D17E
:1016500004E01AB1012A06D0022A03D1C96AC901DD
:1016600000D5012010BDC96AA142FAD010BD002AE0
:10167000F7D0012AF2D0022AF3D0032AF3D010BD0A
:1016800030B50468256825F480252560046863600A
:101690008368402B036803D099600068C26030BD46
:1016A0009A600068C16030BD704772B6FEE72DE9F0
:1016B000F0410446876D00F0BFFA064694F8350005
:1016C0000025022806D08020606584F8345001206F
:1016D000BDE8F0812068016821F0160101602068F2
:1016E000416921F080014161206C08B9A06C20B1F2
:1016F0002068016821F0080101602068016821F07C
:10170000010101600CE000F097FA801B052807D961
:1017100020206065032084F8350084F83450D7E732
:1017200020680068C007EED194F85C103F20884024
:10173000B860012084F8350084F834500020C7E7F1
:1017400090F83510022903D08021416501207047AF
:10175000052180F835100068016821F00101016061
:10176000002070472DE9F84304464FF00009CDF8FA
:10177000009063484FF41651A56D0068B0FBF1F777
:101780002E6894F85C10082000FA01F131420FD065
:1017900021680A6852070BD50A6822F004020A6021
:1017A00094F85C108840A860606D40F001006065AE
:1017B00094F85C104FF0010808FA01F0304208D0AC
:1017C00021684969090604D5A860606D40F00200EF
:1017D000606594F85C1004208840304208D021688D
:1017E0000968890704D5A860606D40F00400606551
:1017F00094F85C1010208840304218D021680968A5
:10180000090714D5A86020680168490304D5006859
:10181000000308D5A16C07E00168C90503D401687D
:1018200021F008010160216C09B12046884794F835
:101830005C1020208840304231D021680968C906F8
:101840002DD5A86094F8350005282068016806D0D9
:10185000490347D5006800031DD4616C1CE021F0EA
:10186000160101602068416921F080014161206C0E
:1018700008B9A06C20B12068016821F0080101605E
:1018800094F85C103F208840A86084F8358084F884
:101890003490216D1FE0E16B09B120468847606DEF
:1018A00000282BD0606DC00714D0052084F83500C7
:1018B0002068016821F0010101600098401C00903F
:1018C000B84203D820680068C007F6D184F8358094
:1018D00084F83490E16C002910D001B02046BDE8B6
:1018E000F04308470168C905D5D4016821F010010B
:1018F000016084F8358084F83490CCE7BDE8F88343
:101900000C0000202DE9F041044600F095F9064650
:101910005CB1022084F83500002584F8345020683A
:10192000016821F0010101600DE00120BDE8F081B6
:1019300000F082F9801B052805D92020606503206E
:1019400084F83500F2E720680068C007F0D122680B
:10195000116820480140D4E901031843D4E9033653
:101960003343184363691843A3691843E369184371
:10197000236A18430843616A042903D1D4E90B138D
:1019800019430843106020684069666A20F0070127
:1019900030460E43012704280CD1A06A0643E06AB2
:1019A00040B12046FFF742FE20B14020606584F838
:1019B0003570BAE7206846612046FFF723FE94F8A9
:1019C0005C203F2191408160656584F8357000207E
:1019D000ACE700003F8010F02DE9F0410446866D31
:1019E00090F83400002501280DD0012084F834003F
:1019F00094F835700020012F07D084F834000225B8
:101A00002846BDE8F0810220FBE7022784F8357004
:101A100060652046FFF734FE94F85C103F20884054
:101A2000B0602068016841F016010160206C20B1AF
:101A30002068016841F0080101602068016841F0F8
:101A400001010160DCE700002DE9F84FDFF8BCA1DF
:101A50000022012503264FF00F090AF1040BAAF119
:101A6000040E00BF0B6805FA02F42340A34270D1B4
:101A70000F7907F00307012F01D0022F16D18768D5
:101A80004FEA420806FA08FC27EA0C07D1F80CC016
:101A90000CFA08FC4CEA070CC0F808C04768A743DA
:101AA0000C79C4F3001494403C4344600C79E44343
:101AB000A4070AD0C4684FEA420C06FA0CF7BC43EC
:101AC0008F6807FA0CF72743C7600C7904F003040A
:101AD000022C12D1D40800EB840CDCF8204057070C
:101AE000FF0E09FA07F824EA0804D1F8108008FA72
:101AF00007F848EA0408CCF8208004684FEA420C52
:101B000006FA0CF7BC430F7907F0030707FA0CF746
:101B1000274307604C6814F4403F70D03C4C276862
:101B200047F480472760246822F0030704F48044C8
:101B30000094384C07EB040CDCF8084897074FEA90
:101B4000177809FA08F7BC43334FB84202D100278F
:101B500024E054E0314FB84201D101271EE0304F5C
:101B6000B84201D1022719E02E4FB84201D1032714
:101B700014E02D4FB84201D104270FE02B4FB8429B
:101B800001D105270AE02A4FB84201D1062705E016
:101B9000284FB84201D1072700E0082707FA08F7C5
:101BA0002743CCF80878DAF800405746D1F804C04B
:101BB0009C435FEACC2C00D51C433C60DBF8004022
:101BC0005F46D1F804C09C435FEA8C2C00D51C43CF
:101BD0003C60DEF800407746D1F804C09C435FEAE1
:101BE0008C3C00D51C433C60084F083F3C68D1F852
:101BF00004C09C435FEACC3C00D51C433C60521CB3
:101C0000102AFFF42FAFBDE8F88F0000083C014018
:101C1000443802400030014000000240000402400D
:101C200000080240000C0240001002400014024074
:101C300000180240001C0240014880687047000004
:101C4000000000200B4810B5016841F400710160EC
:101C5000016841F480610160016841F480710160B4
:101C6000032000F06FF80F2000F006F800F024F8D1
:101C7000002010BD003C024070B50D4D04464FF4ED
:101C80007A712878B1FBF0F00A490968B1FBF0F0ED
:101C900000F012FB48B9102C07D200222146501E3A
:101CA00000F030F800206C6070BD012070BD0000B5
:101CB000000000200C0000200A4808B5016841F42B
:101CC00080410160006800F4804000900548001FDA
:101CD000016841F080510160006800F08050009080
:101CE00008BD000044380240002809DB00F01F0254
:101CF000012191404009800000F1E020C0F800116E
:101D000070470000F0B40E4B1B680C46C3F302236F
:101D1000C3F10705042D00D90425191D072901D297
:101D2000002300E0DB1E012606FA05F1491E2140D2
:101D300099409E40761E16403143F0BC04F02EB907
:101D40000CED00E0064900F0070208684FF6FF03BB
:101D5000184040EA0220034A104308607047000020
:101D60000CED00E00000FA052DE9F0470E460500F5
:101D700065D0DFF81481D8F80000F7B200F0070052
:101D8000B04207D288F80070D8F8000000F00700D1
:101D9000B04254D128683D4C810712D5400703D585
:101DA000206840F4E05020602878000703D52068C0
:101DB00040F4604020602068A96820F0F0000843EB
:101DC00020602878C0072DD030496868083901287C
:101DD00012D0022813D0032811D0096889070029DE
:101DE0002DDA216821F0030101432160FFF724FF70
:101DF000814641F2883A0EE009688903EFE70968F5
:101E00008901ECE7FFF718FFA0EB0901514502D962
:101E10000320BDE8F0872068696800F00C00B0EB93
:101E2000810FEFD1D8F80010404601F00701B14210
:101E300007D90770006800F00700B04201D0012008
:101E4000E7E72878400705D52068E96820F4E050E6
:101E5000084320602878000706D52068296920F407
:101E6000604040EAC100206000F03EF82168084A66
:101E7000C1F30311515CC840064908600648006878
:101E8000FFF7FAFE0020C4E7003C02400838024099
:101E9000AC6B00080C000020040000200148006822
:101EA000704700000C0000200448054900680968DC
:101EB000044AC1F38221515CC84070470C000020E5
:101EC00008380240BC6B00080448054900680968EE
:101ED000044AC1F34231515CC84070470C000020F5
:101EE00008380240BC6B0008154810B5006810F0B7
:101EF0000C02144813D01449042A0FD0082A0ED11A
:101F00000F4C241F2268236802F03F025B0207D5B2
:101F10002068C0F38810A0FB010106E0084610BD50
:101F20002168C1F38811A1FB00010023FEF7F6F937
:101F30002168C1F30141491C4900B0FBF1F010BD1B
:101F4000083802400024F40040787D012DE9F84F64
:101F500004006ED02078DFF84C93C007A9F1040587
:101F60004AD009F104000168C1F38101012908D0B8
:101F70000068C0F3810002280AD1D9F800004002AD
:101F800006D52868800337D560680028E1D033E0A3
:101F90006068B0F5803F10D0B0F5A02F286810D051
:101FA00020F480302860286820F480202860606851
:101FB000A8B1FFF741FE06460DE0286840F48030E6
:101FC000F4E740F480202860F7E700BFFFF734FE15
:101FD000801B642873D828688003F7D50CE0FFF7CE
:101FE0002BFE064605E000BFFFF726FE801B642897
:101FF000F0D828688003F7D42078DFF8AC82800717
:102000004FF0000A3ED5A748001D016811F00C0FE3
:1020100008D00068C0F3810002280BD1D9F8000075
:10202000400207D42868800716D5E068012800D14F
:1020300012E033E1E068B8B10120C8F80000FFF712
:10204000FBFD064605E000BFFFF7F6FD801B0228FA
:10205000C0D828688007F7D52868216920F0F800E3
:1020600040EAC10028600DE0C8F800A0FFF7E4FDD9
:10207000064604E0FFF7E0FD801B02281FD8286811
:102080008007F7D42078000722D5864F87486169FA
:10209000703771B101210160FFF7CEFD064604E003
:1020A000FFF7CAFD801B022809D838688007F7D5DA
:1020B0000EE0C0F800A0FFF7BFFD064605E082E095
:1020C000FFF7BAFD801B02287DD838688007F7D457
:1020D0002078400768D5DFF8CCB100270BF13C0B26
:1020E000DBF80000C0000BD4DBF8001041F0805199
:1020F000CBF80010DBF80000012700F080500090C2
:102100006B4E3068C00510D4306840F48070306089
:10211000FFF792FD009005E0FFF78EFD0099401A51
:10212000022850D83068C005F6D55E4EA0686C36DF
:1021300001280FD00528306810D020F00100306051
:10214000306820F004003060A068B8B1FFF774FD7B
:1021500000900FE0306840F00100F4E740F0040028
:102160003060F7E7FFF768FD0099411A41F28830C7
:10217000814266D830688007F4D50EE0FFF75CFD39
:10218000009007E0FFF758FD0099411A41F28830AE
:10219000814256D830688007F4D42FB1DBF80010A4
:1021A00021F08051CBF80010A069C8B33D49091D4A
:1021B0000968C1F3810102294AD00228504607D09C
:1021C000C8F8600000E03CE0FFF736FD04463BE065
:1021D0004746C8F86000FFF72FFD064605E000BF40
:1021E000FFF72AFD801B02282BD828688001F7D42E
:1021F000D4E907010843A16A2E4A490802EB0141CC
:10220000626A41EA8211084394F82C1040EA0161A5
:10221000C9F8001001203866FFF70EFD044606E0FD
:102220003EE000BFFFF708FD001B022809D8286820
:102230008001F7D534E000BFFFF7FEFC001B022849
:1022400002D90320BDE8F88F28688001F4D427E084
:102250000128F7D0D9F80000E26900F4800191422A
:102260001CD1226A00F03F01914217D147F6C0719C
:10227000626A0140B1EB821F10D1A26A4FF0FF33B6
:1022800000F4403103EB5202B1EB024F06D194F857
:102290002C1000F07060B0EB016F01D00120D1E78D
:1022A0000020CFE70438024000004742800E47423A
:1022B000007000400000FFFF10B5401EB0F1807FAD
:1022C00001D3012010BD4FF0E02460610F216017A1
:1022D00003F064FE0020A06107202061002010BDF3
:1022E00010B590F83C20012A22D0012280F83C2031
:1022F000CA688C6822F4407222434C6822F48062DF
:1023000022430C6822F4006222430C6922F48052BA
:1023100022434C6922F400522243C969002322F46B
:1023200080420A4301684A6480F83C30002010BDB6
:10233000022010BD70B590F83C20012A32D0012453
:1023400080F83C40022280F83D2003685A689D686E
:1023500022F070060A6832435A60134B02689A42B0
:1023600014D0B2F1804F11D0104B9A420ED0104BC6
:102370009A420BD00F4B9A4208D00F4B9A4205D08D
:102380000E4B9A4202D00E4B9A4204D1496825F076
:1023900080031943916080F83D40002180F83C1093
:1023A000084670BD022070BD0000014000040040DE
:1023B00000080040000C00400004014000400140C3
:1023C0000018004010B5040003D094F83D0010B18F
:1023D00007E0012010BD002084F83C00204600F0FA
:1023E0001FF8022084F83D00211D206803F04AF800
:1023F000012084F8460084F83E0084F83F0084F809
:10240000400084F8410084F8420084F8430084F8D6
:10241000440084F8450084F83D00002010BD000011
:1024200008B501680E48814201D10E4810E00D4800
:10243000001FB1F1804F0BD00B4A914207D10168C8
:1024400041F002010160006800F00200009008BD48
:10245000016841F001010160006800F00100F5E74A
:1024600000000140443802400004004070B50446BA
:1024700090F83C000025012817D0012684F83C6024
:10248000022084F83D002068826822F0770222F45E
:102490007F4282600868502838D00DDC20284FD059
:1024A00005DC90B3102811D14AE0022070BD30281D
:1024B00046D040280AD13BE060282FD070280DD0AC
:1024C000B0F5805F03D0B0F5005F12D0012584F82D
:1024D0003D60002084F83C00284670BDCB68D1E9FF
:1024E0000121206803F03FF82068816841F07701FE
:1024F00009E0CB68D1E90121206803F034F82068B5
:10250000816841F480418160E1E719E0CA68496867
:10251000206803F0FDF85021206806E0CA68496889
:10252000206803F006F96021206803F026F8CEE762
:10253000CA684968206803F0EBF840212068F4E796
:10254000226801461046F0E770B586B004461421B3
:102550006846FDF7A5FF274E22680024264902257C
:1025600001232648B2420AD10A6842F001020A60F9
:10257000096801F0010105914FF4706130E0B2F19A
:10258000804F24D01E4B9A4232D10A6842F0010299
:102590000A600A6802F0010205920A6842F002022B
:1025A0000A60096801F002010591C0210091CDE99E
:1025B00001546946CDE90345FFF746FA0320009030
:1025C000CDE9015469460F48CDE903450EE00A689C
:1025D00042F001020A60096801F0010105910F2132
:1025E0000091CDE90154CDE903436946FFF72CFA88
:1025F00006B070BD000001403038024000000240CB
:10260000000400400004024070B5044690F83C000D
:1026100000260D4601280FD0012084F83C006AB145
:10262000042A1DD0082A2FD00C2A3FD001260020D2
:1026300084F83C00304670BD022070BD206802F076
:10264000A5FF2068816941F00801816120688169E6
:1026500021F004018161206881692A69114311E038
:10266000206802F0C3FF2068816941F40061816144
:102670002068816921F480618161206881692A690B
:1026800041EA02218161D2E7206802F0E5FF20687B
:10269000C16941F00801C1612068C16921F00401EC
:1026A000C1612068C1692A69114311E0206803F003
:1026B00007F82068C16941F40061C1612068C169FF
:1026C00021F48061C1612068C1692A6941EA02215F
:1026D000C161ACE710B5040003D094F83D0010B11F
:1026E00007E0012010BD002084F83C00204600F0E7
:1026F0001EF8022084F83D00211D206802F0C2FE71
:10270000012084F8460084F83E0084F83F0084F8F5
:10271000400084F8410084F8420084F8430084F8C3
:10272000440084F8450084F83D00002010BD704747
:1027300010B50446022249B104290ED0082913D04D
:1027400094F84100012816D0012010BD94F83E00F5
:102750000128F9D184F83E200FE094F83F000128C9
:10276000F2D184F83F2008E094F840000128EBD132
:1027700084F8402001E084F841200122206802F022
:10278000E5FE16492068164A884201D0904203D1DE
:10279000436C43F4004343642068884213D0B0F193
:1027A000804F10D00F4988420DD00F4988420AD07F
:1027B0000E49884207D0904205D00D49884202D088
:1027C0000C49884204D1816801F00701062903D031
:1027D000016841F001010160002010BD00000140CE
:1027E000000401400004004000080040000C0040CC
:1027F000004001400018004070477047F8B501687C
:1028000004460868CA684B6910F00F0F4FF00005C6
:1028100059D003F0010602F49077374365D0C10721
:1028200005D0D10503D5216C41F001012164410798
:1028300005D5D90703D0216C41F00201216481073D
:1028400005D5D90703D0216C41F0040121640107AB
:1028500007D502F02001314303D0216C41F008017B
:102860002164216C00293AD0800604D5900602D557
:10287000204603F01BF920684069216CC0F38010EA
:10288000090700D460B3204602F0E7FF20684069E2
:10289000400621D52068143050E8001F21F0400187
:1028A00040E80012002AF5D1A06BA8B16C4901657F
:1028B000A06BFEF745FF002811D0A06B016D01B0A1
:1028C000BDE8F040084783060FD593060DD5204696
:1028D000BDE8F84003F0EAB82046FFF78EFFF8BDE8
:1028E0002046FFF78AFF2564F8BD266B2023012EC2
:1028F00079D1C60677D5D60675D5086848680090A0
:102900004869400640D5A16B086840680004000C87
:10291000EAD0A28D8242E7D9E085C869B0F5807F10
:102920002DD020680C3050E8001F21F4807140E861
:102930000012002AF5D12068143050E8001F21F061
:10294000010140E80012002AF5D12068143050E857
:10295000001F21F0400140E80012002AF5D184F860
:102960003E30256320680C3050E8001F21F0100134
:1029700040E80012002AF5D1A06BFEF798FEA08D6A
:10298000E18D401A81B229E0A08DE18D401A81B21B
:10299000E08D0028A8D00029A6D020680C3050E88F
:1029A000002F22F4907240E80026002EF5D1206816
:1029B000143050E8002F22F0010240E80026002EDB
:1029C000F5D184F83E30256320680C3050E8002FA4
:1029D00022F0100240E80023002BF5D12046FFF73B
:1029E0000BFFF8BDFFE705062BD5150629D594F892
:1029F0003D002128F5D1A068B0F5805F01D12069A4
:102A0000B0B1206A411C2162216800784860E08CE6
:102A1000401E0004000CE084E3D12068C16821F06E
:102A20008001C1602068C16841F04001C160D8E701
:102A3000206A0088C0F308004860206A801C206279
:102A4000E5E74006CDD55006CBD5CA68204622F032
:102A50004002CA6084F83D3000F0AFF9C1E70000E1
:102A60006557000870B5040004D094F83D000025B7
:102A700010B106E0012070BD84F83C50204600F003
:102A800023F8242084F83D002068C16821F4005117
:102A9000C160204603F06AF82068016921F4904182
:102AA00001612068416921F02A0141612068C16803
:102AB00041F40051C1602564202084F83D0084F871
:102AC0003E00002070BD00002DE9F04F87B00446A5
:102AD00014216846FDF7E4FC674A2168674802262E
:102AE000032700254FF000694FF4806A4FF4807B84
:102AF000914265D1614910310A6842F480120A603E
:102B0000096801F480110591016841F00401016038
:102B1000016801F004010591016841F008010160BC
:102B2000006802AA00F008000590F002CDE9000656
:102B30004FF0080882E8A00169465148FEF784FF7B
:102B40000420CDE9000602AA694682E8A0014D48AA
:102B5000FEF77AFF4D4E4C484F463060C6E901956E
:102B6000C6E9035A7561C6E9065B3562D146D846A7
:102B700030467562FEF7C6FE08B1FEF796FDA66305
:102B8000B463424E40486036A830E6E80207402071
:102B9000A6E821023D4846F814596030C6E90658B7
:102BA00035627562FEF7AEFE08B1FEF77EFD666324
:102BB000002211463520B463FFF7A4F8352056E013
:102BC000334A914255D12D4914310A6842F010021E
:102BD0000A60096801F010010591016841F00201E5
:102BE00001600068029500F002000590C020CDE968
:102BF00000060720CDE9037069462648FEF724FF4A
:102C0000224E2548C036C8463060C6E90195C6E95F
:102C1000035A574606F11801D9464FF4003A756138
:102C200081E8200630467562FEF76CFE08B1FEF7BB
:102C30003CFDA663B4631848184E7830E6E80208F5
:102C40004020A1C646F8145906F1180080E8200675
:102C500012487562FEF756FE08B1FEF726FD666360
:102C6000002201212520B463FFF74CF82520FFF74F
:102C70003BF807B0BDE8F08F00500040303802400C
:102C800000080240000C024010600240C0380020E2
:102C9000001001400004024040640240E03900207E
:102CA00090F83E30202B0ED159B152B190F83C3003
:102CB000012B08D0012380F83C300023036302F08D
:102CC000DBBF0120704702207047000010B50446AA
:102CD0000848844203D108480078FEF7F1FB074911
:102CE0002068884205D106480078BDE81040FEF70C
:102CF00041BC10BD383800204801002000100140C0
:102D0000D4010020704700002DE9F843044690F8F4
:102D10003D001F4616460D4620284CD1C5B1BEB118
:102D200094F83C00012846D0012084F83C004FF084
:102D30000008C4F84080212084F83D00FEF77CFFA5
:102D4000A6848146E684A068B0F5805F03D004E0E5
:102D50000120BDE8F883206928B12E465FF0000508
:102D600084F83C800EE00026FAE78021204602F03D
:102D7000CDFFA0B9AEB116F8010B21684860E08C18
:102D8000401EE084E08C4B464FF000020097002884
:102D9000EBD14FF04001204602F0B8FF30B10320E4
:102DA000D7E735F8020BC0F30800E6E7202084F8E7
:102DB0003D000020CDE70220CBE77047FEE7000092
:102DC000194808B5016841F400110160016801F477
:102DD00000110091016841F4800101600068002247
:102DE00000F48000009011460B20FEF78BFF0B20B3
:102DF000FEF77AFF002211462F20FEF783FF2F20D7
:102E0000FEF772FF002202213A20FEF77BFF3A20F4
:102E1000FEF76AFF002211464620FEF773FFBDE869
:102E200008404620FEF760BF30380240114808B520
:102E3000016841F001010160016801F001010091A8
:102E4000016841F002010160016801F00201009196
:102E5000016841F004010160016801F00401009182
:102E6000016841F008010160006800F0080000906E
:102E700008BD00003038024010B596B000240F9411
:102E800010941194129413941C2168461494FDF725
:102E900007FB202107A8FDF703FB344832490160F6
:102EA0001F21C0E9011440F2CF71C0E9031444614D
:102EB0008461FFF787FA08B1FEF7F7FB4FF4805003
:102EC0000F900FA92948FFF7D1FA08B1FEF7EDFBE3
:102ED0002648FFF7FFFB08B1FEF7E7FB139413A9A1
:102EE00022481494FFF726FA08B1FEF7DEFB6020B3
:102EF000CDE90004029403940494059400226946E9
:102F00001A480694FFF780FB08B1FEF7CEFB0422B7
:102F100069461648FFF778FB08B1FEF7C6FB0822A2
:102F200069461248FFF770FB08B1FEF7BEFB0C22A2
:102F300069460E48FFF768FB08B1FEF7B6FB079439
:102F4000089409944FF400500A94CDE90B4007A966
:102F500006480E94FFF7C4F908B1FEF7A6FB034834
:102F6000FFF7F2FA16B010BD0000014060370020F4
:102F700010B58EB000240794089409940A940B9419
:102F80001C2168460C94FDF78BFA2A484FF08041CB
:102F900001601F21C0E9011440F2CF71C0E90314A0
:102FA0008461FFF70FFA08B1FEF77FFB4FF4805002
:102FB000079007A91F48FFF759FA08B1FEF775FBFC
:102FC0001C48FFF787FB08B1FEF76FFB0B940BA9BA
:102FD00018480C94FFF7AEF908B1FEF766FB6020C5
:102FE000CDE9000402940022694612480494FFF7D8
:102FF0000BFB08B1FEF759FB042269460D48FFF7A9
:1030000003FB08B1FEF751FB082269460948FFF7A8
:10301000FBFA08B1FEF749FB0C2269460548FFF7A9
:10302000F3FA08B1FEF741FB0248FFF78DFA0EB044
:1030300010BD0000A837002010B58EB00024079402
:10304000089409940A940B941C2168460C94FDF78B
:1030500027FA2A48284901601F21C0E9011440F2DB
:10306000CF71C0E903148461FFF7ACF908B1FEF732
:103070001CFB4FF48050079007A92048FFF7F6F992
:1030800008B1FEF712FB1D48FFF724FB08B1FEF75D
:103090000CFB0B940BA919480C94FFF74BF908B1E2
:1030A000FEF703FB6020CDE900040294002269468C
:1030B00012480494FFF7A8FA08B1FEF7F6FA0422C2
:1030C00069460E48FFF7A0FA08B1FEF7EEFA0822AB
:1030D00069460A48FFF798FA08B1FEF7E6FA0C22AB
:1030E00069460648FFF790FA08B1FEF7DEFA034892
:1030F000FFF72AFA0EB010BD00040040F0370020A0
:103100000C4810B50A4901604FF416514160002186
:1031100081600C22C160C0E904128161C161FFF7C6
:10312000A1FC002803D0BDE81040FEF7BEBA10BDD8
:1031300000500040383800200C4810B50A490160A2
:103140004FF4E1314160002181600C22C160C0E98F
:1031500004128161C161FFF785FC002803D0BDE83E
:103160001040FEF7A2BA10BD001001407C380020CC
:10317000FEE7FEE77047000002480068002800D024
:10318000004770472400002010B5044600F0A8F85E
:103190003E480021484A01703D4801703D48017099
:1031A0003D4801603D4801603D4801703D48017067
:1031B0003D4801703D4801603D4801603D48016067
:1031C000106830B13D48006818B1126802C0521E44
:1031D000FCD13B4801603B4801603B4801603B48F3
:1031E00001603B4801603B4801603B4801603B484F
:1031F000017001F005FA01F03BFA204600F0C2FF31
:103200002088002841D1204601F010F820880028AD
:103210003BD1204601F016F82088002835D1204601
:1032200001F078F8208800282FD1204601F014FA08
:103230002088002829D1204601F0D0FA20880028D3
:1032400023D1204601F072FC208800281DD12046A1
:1032500000F0B8FF2088002817D1204601F012FFA7
:103260002088002811D1204601F0C0FB20880028CA
:103270000BD1204601F060FF2088002805D100F026
:103280007FFFBDE81040FFF775BF10BD380000207C
:10329000390000206C000020D0000020D400002065
:1032A0005200002053000020540000206000002045
:1032B0006400002068000020D46B0008D06B000878
:1032C000180000201C000020200000202400002006
:1032D000280000202C000020300000209A00002050
:1032E000054806490068096800EB8100044920F0A0
:1032F0000700086070470000D06B0008D46B00081E
:10330000D8000020184810B5007801282BD1FCF710
:10331000EFFF04461548017801B3491E11F0FF0183
:1033200001701BD112480078C0B901F057F911495A
:103330000870114900EB400051F820100F4801605F
:103340000F480068814209D051F8840F401C086082
:103350000C480168491C0160FEF764F82046BDE88E
:103360001040FCF7C9BF10BD390000203800002014
:103370006C00002053000020444B0020D4000020AB
:10338000D0000020900000202DE9F04104461648AE
:103390000E461546007810B142F6E16021E0F4B126
:1033A000FCF7A6FF07461148C4E90006002626627E
:1033B00084F825604020A66284F8240004F1080007
:1033C00001F03FF8204600F093FF09490888401CAF
:1033D00008803846FCF790FF2E80BDE8F08145F666
:1033E000C3501080F9E70000380000204D555458B4
:1033F000500000202DE9F04F0646624889B01C4677
:103400000078129D90468B4610B146F2AE109BE0BC
:1034100046B1B8F1000F08D0B8F5004F05D045F619
:10342000256091E045F6C3508EE0574930688842E8
:1034300002D045F6C45087E04FF0000A0CB1C4F842
:1034400000A0FCF755FF814696F825004F4978B15A
:10345000376A0A6897421FD1401C86F825000CB1D4
:10346000B06A20604846FCF747FF45F282706BE087
:103470000868306290F8370086F82400012086F84A
:1034800025000CB1B06A20604846FCF735FFA5F86E
:1034900000A009B0BDE8F08F5FEA084005D54846B6
:1034A000FCF72AFF46F2B0104EE03948007828B108
:1034B0004846FCF721FF46F6635045E0884697F8FA
:1034C000370092F8371088421ED997F8360008283E
:1034D00035D2DFE800F0041316161313161638461B
:1034E00001F026F9D8F8000090F8370087F8370087
:1034F00001F092F8384601F0E5F805E087F837105A
:1035000002E0384600F084FF5B46042231466846FC
:1035100000F00CFF4846FCF7EFFE00F0CDF8FCF79A
:10352000E7FED8F8001091F835207AB1012A13D0BF
:10353000022A20D0032A15D046F62E6117E048460D
:10354000FCF7DAFE46F62D602880A2E70CB1096C84
:103550002160A5F800A00BE00CB1096C216046F2D7
:10356000A91104E00CB1C4F800A047F2D9212980C8
:10357000FCF7C2FE8DE70CB1096C216045F6C25123
:10358000F5E70000380000204D555458D0000020C9
:103590006C0000202DE9F84F044643481546894643
:1035A000007810B146F20E2011E03CB1080008D0BE
:1035B000B1F5004F05D045F6256008E045F6C3504B
:1035C00005E03A492068884204D045F6C45010808E
:1035D000BDE8F88FFCF78CFEDFF8D4808246216AC4
:1035E000D8F80000814205D05046FCF785FE45F230
:1035F000817010E0FDF75EFF0646A06294F825009A
:10360000401E10F0FF0084F8250006D05046FCF75D
:1036100073FE45F283702880DAE7208A04F10807F8
:103620004FF0000BB8B3D8F8001094F8243091F89C
:1036300037209A4214D0084601F07AF8D8F80010E2
:1036400094F8240081F8370000F0E6FFD8F8000075
:1036500001F054F8D8F80000164990F837000870C7
:10366000386800231A468168216291F8370084F88F
:103670002400012084F825002046009600F041FF38
:103680005046FCF739FE5FEA094001D400F014F817
:10369000A5F800B09CE7FFE75E465046C4F820B0AE
:1036A000FCF72AFE2E8093E7380000204D55545831
:1036B000D000002052000020154810B500780028E6
:1036C00024D114480078002820D1FCF711FE0446CC
:1036D00000F084FF10490870104900EB400051F8D9
:1036E00020000F4908600F490968884209D050F846
:1036F000841F491C01600C480168491C0160FDF7EA
:103700008CFE2046BDE81040FCF7F6BD10BD000061
:10371000380000206C00002053000020444B0020A3
:10372000D4000020D00000209000002070B5044696
:103730001048007810B146F6625019E00E48007843
:10374000012802D045F6896012E00C4D2878FA284D
:1037500002D345F209200BE0FCF7CAFD06462878A3
:10376000401C287001F00EF83046FCF7C5FD002023
:10377000208070BD38000020390000206C0000203F
:1037800070B504461548007810B146F6655023E040
:1037900013480078012802D045F689601CE0114DDD
:1037A000287870B1FCF7A4FD06462878401E10F07A
:1037B000FF00287008D03046FCF79EFD46F66350A7
:1037C0000AE046F6645007E000F0EAFF3046FCF7F6
:1037D00093FDFFF771FF0020208070BD38000020AE
:1037E000390000206C00002070B50F4D0446287889
:1037F00018B145F68A60208070BD00F0EFFE0B49DD
:1038000008700B4908700B4900EB400051F820008C
:10381000094908600949086001202870FDF7ECFD9E
:1038200043F69920E7E7000039000020530000200C
:1038300052000020444B0020D4000020D000002083
:103840002DE9F0410646FCF753FD224900250D8085
:1038500021490D6021490D6021490D6021490D600C
:1038600021490D81FCF748FDFCF742FD1F490C681A
:1038700016E000BFFCF73CFDC4F8A85044F86C5FAC
:1038800007462563A561A582E5826562A562FDF70D
:1038900011FE44F8200FA4F134008581646A384693
:1038A000FCF72AFD002CE5D1FCF722FD10490C683D
:1038B00004E000BFFCF71CFDA585A469FCF71CFD16
:1038C000002CF7D101F01CFB01F0CEFC3580BDE8E7
:1038D000F08100007A0000208C000020A000002071
:1038E000C000002064000020384B0020940000201D
:1038F00058000020F8B5044669461E4800F060FBF9
:10390000BDF8000028BB6A460021022000F0A8FB99
:10391000BDF80000E8B9FCF7EBFC174E0025356058
:10392000FCF7EAFC154916480A6803689A4202D96E
:10393000B2FBF3F010B90A21B2FBF1F06A460021A4
:1039400000F08EFB69460B4800F048F9BDF8000016
:1039500008B12080F8BDFCF7CBFC0A490A4A0D608B
:1039600031681160094A01211170FCF7C5FC2580FE
:10397000F8BD0000E04F00207C000020F86B00083C
:10398000E46B00088C0000208000002088000020EC
:1039900002480068002800D0004770472800002037
:1039A0002DE9FF4F83B004464C48DDE91785DDE97A
:1039B00010960078139F934610B147F24A1025E005
:1039C00054B1BBF1000F0AD066B145480068874288
:1039D0000BD246F6306019E047F2AD1016E047F220
:1039E0004F1013E046F62F6010E01298B84202D351
:1039F00046F631600AE046F27320B9F1400F05D275
:103A0000B9F13F0F06D137498C4203D0288007B067
:103A1000BDE8F08F204601F099F84FF0000AA5F8B4
:103A200000A05FEAC8700AD05FEA887007D5304608
:103A30000021524601E004C0491CB942FBD3129850
:103A4000CDE9007806EB80052B46324658460699AC
:103A500000F0E2F9C4F828B00699E1620499216205
:103A600084F83790A56020601698A763666260604E
:103A7000A4F83C800020514604EB8002401C1167F2
:103A800010F0FF00F8D004F15800149900F028FC61
:103A9000204600F02DF8FCF72BFC054694F8370083
:103AA00000F0BAFD204600F029FE204601F010F893
:103AB0000D490888401C08800C48007801282846D9
:103AC00004D007B0BDE8F04FFCF716BCFCF714FCBF
:103AD00007B0BDE8F04FFFF7EFBD00003800002051
:103AE000F46B0008804A0020980000203900002074
:103AF00002490968002900D00847704718000020D3
:103B000070B504462D480D46007810B147F24E10AE
:103B100004E02B48844203D147F24C10088070BD6A
:103B20002CB9FCF7E5FB27490C68FCF7E5FBFCF733
:103B3000DFFB064694F83600082838D2DFE800F0AC
:103B4000040828280B082828204600F0F1FD02E090
:103B5000204601F0B5F904F1580000F0A7FB20461B
:103B600000F034F8204600F0C5FF17490888401ED1
:103B70000880204600F0EAFFFF2084F83600304637
:103B8000FCF7BAFB00202880BDE87040FFF794BD29
:103B900094F834000728DBD2DFE800F004050405C0
:103BA00005050500D4E7204600F07DFCD0E730464F
:103BB000FCF7A2FB46F62D60288070BD380000207F
:103BC000804A0020D00000209800002002490968A7
:103BD000002900D0084770471C00002070B505463A
:103BE0000E480C46007818B147F25510088070BD99
:103BF000FCF77EFB1DB10A4909688D4205D1FCF72F
:103C00007BFB47F25710208070BDFCF775FB214607
:103C10002846BDE8704000F0EDBF000038000020ED
:103C2000D000002002490968002900D008477047E9
:103C3000200000202DE9F0478246434814461E46E6
:103C40000078884610B146F2AE1006E0080006D0B3
:103C5000B1F5004F03D045F62560188035E0002708
:103C600004B12760FCF744FB384D81462968486C55
:103C7000C8B1401E804648640CB1086C2060FDF756
:103C800019FC29680A6C801AC1F89800D1F89C20A8
:103C9000824201D2C1F89C004846FCF72DFB3780D8
:103CA0004046BDE8F0875FEA084005D54846FCF786
:103CB00023FB46F2B01007E02548007838B14846AB
:103CC000FCF71AFB46F6635030800020E9E700213C
:103CD00053460722084600F029FB4846FCF70CFB38
:103CE000FFF7EAFCFCF704FB8046286890F83510E3
:103CF00031B1012916D003291AD046F62E601BE0F7
:103D000074B1006C2060FDF7D5FB29680A6C801A3D
:103D1000C1F89800D1F89C20824201D2C1F89C00E1
:103D200037800AE00CB1006C206046F2A91003E075
:103D300004B1276047F2D92030802868446C40469F
:103D4000FCF7DAFA2046ACE738000020D00000206B
:103D50006C00002070B50D000646144607D0B5F57E
:103D6000004F04D045F625601080002070BDFDF79F
:103D7000A1FB0246234629463046BDE8704000F0CC
:103D800099BF00002DE9F0410546214816460F462F
:103D900000781C4610B147F2591007E046F2D520D2
:103DA00027B11EB1FCF7A4FA1DB104E01880BDE8EC
:103DB000F08118490D684FF00008296841B195F865
:103DC0003C10C9070DD0FCF797FA0020696A14E08F
:103DD000FCF792FAC7F8008047F25210C6F800804C
:103DE00007E0FCF789FAC7F8008047F25410C6F8DC
:103DF00000802080DBE7401C091D0A68002AFAD0F9
:103E00003860A96B081A3060A4F80080CFE7000082
:103E100038000020D000002030B5DDE9035402EB6B
:103E2000850222F007024FF0807542E902054A48F8
:103E300042F80C0C4FF0123042F8100C4FF00330E7
:103E400042F8140C4FF0023542F8185DA2F1080058
:103E500060E807134FF011318161E90041614FF0D3
:103E600009310161A900C1604FF0073181604FF055
:103E7000063141604FF0053140F8041969000160D6
:103E8000610767D5021F29061160A0F10801334AB6
:103E90000A60091F324A0A60091F324A0A60091F74
:103EA000314A0A60091F314A0A60091F304A0A6014
:103EB000091F304A0A60091F2F4A0A60091F2F4A4A
:103EC0000A60091F2E4A0A60091F2E4A0A60091F4C
:103ED0002D4A0A60091F2D4A0A60091F2C4A0A60F0
:103EE000091F2C4A0A60091F4FF083420A60091F0C
:103EF000294A0A60091F294A0A60091F284A0A60DC
:103F0000091F284A0A60091F274A0A60091F274A11
:103F10000A60091F264A0A60091F4FF082420A60A0
:103F2000091F244A0A60091F234A0A60091F234AFD
:103F30000A60091F4FF081420A60091F6A050A6082
:103F4000091F12020A60091F4FF07E520A60002109
:103F500040F8841D30BD00009D4C00080000F84171
:103F60000000F0410000E8410000E0410000D841BD
:103F70000000D0410000C8410000C0410000B8412D
:103F80000000B0410000A8410000A041000098419D
:103F90000000904100008841000070410000604135
:103FA000000050410000404100003041000020412D
:103FB000000010410000E0400000C0400000A040B0
:103FC000074A127812B147F25D1004E0054A9042A8
:103FD00003D147F25B100880704700F0B7BE0000C5
:103FE00038000020804A002070B5194D286890F8EC
:103FF0003C10490702D50068FDF7E8F9154C206828
:1040000090F83C10490702D50068FDF7ECF912481A
:10401000006800B18047FDF74DFA29682268914297
:1040200009D0D1F88C30C31AC1F88830D1F890404B
:104030002344C1F89030C2F88C00084AD1F8A83067
:104040001068834201D2C1F8A8000020106070BD42
:10405000D0000020D40000202C00002068000020A8
:104060002DE9F04106461D480D461446007810B172
:1040700047F2752023E01A48007810B146F66350E5
:104080001DE045B1022D06D0042D05D0082D02D02B
:1040900045F6256013E086B1FCF72AF92A46114D52
:1040A000074623463146286800F0CCFE208848B1F8
:1040B0003846BDE8F041FCF71FB947F27E2010807A
:1040C000BDE8F081286800F033FB3846FCF714F9AE
:1040D000FFF7F2FA00202080F2E70000380000200D
:1040E0006C000020D000002008B500F01BF86A46E4
:1040F00000210848FFF72EFE07490868401E0860A7
:1041000007D106486A460068086000210448FFF7A6
:1041100021FE08BDFC4E0020CC000020C80000207D
:10412000E04F002002480068002800D00047704798
:104130003000002010B5FCF7DBF8064A1178491C66
:104140001170FCF7D9F8FFF7CFFFBDE81040FFF77B
:10415000D9B80000380000204FF0E021401E48612F
:104160000648026822F07F420260086940F00500BC
:104170000861086940F002000861704720ED00E026
:1041800070470000034A00211160034A118001803A
:10419000704700003C00002040000020074C084D04
:1041A000FCF7A6F82168491C21602968491C296090
:1041B000FCF7A2F8FEF7E0FFF2E700003400002071
:1041C0007C00002000B50E4A89B0002111600B224E
:1041D00005910691CDE907200A480B4A0B4B006870
:1041E00012681B680292CDE903013F20CDE900036C
:1041F0000023074A07A10C48FFF7D2FB09B000BD16
:1042000034000020CC6B0008C86B0008C46B0008A9
:104210009D41000875432F4F532D4949492049645A
:104220006C65205461736B00804A0020034A0021B2
:104230001160034A11800180704700004400002093
:1042400048000020F0B5164C216859B1154E318850
:1042500059B189B2491E22688FB2002502F11003BC
:1042600029460EE045F21E7118E045F21D7115E079
:10427000E2E802316D1C22F8081BADB242F8041CC2
:104280001033BD42F4D3116051601181D160064AF0
:104290002368136033889380D18011810180F0BD41
:1042A000DC6B0008D86B0008384B002010B5428941
:1042B00092B10A4903680C681C6043680B60CB88A4
:1042C00044891B1BCB808B88448923448B8000212D
:1042D0004181818101604160104610BD384B002052
:1042E00001810021418181810160416070470000AE
:1042F0000022074B05A14261C161196819B18161B2
:104300004861186070478261FBE7000020000000F0
:104310004C000020034A00211160034A11800180F3
:10432000704700004C000020500000202DE9F041B3
:10433000114D07460C4628680026194680F834209F
:1043400080F8356000F0B0FB64B1FC6004F1080651
:1043500001223946286800F011F83946304600F04D
:1043600075F802E02868C687066320462968BDE81C
:10437000F04100F01BB80000D000002010B5C2874B
:104380000024234601630EE04B6041F8103B641C9F
:1043900041F8103BA4B241F80C3C21F8083C41F82C
:1043A000043C41F8180C9442EED310BD38B1426879
:1043B000C1F8B42081688968096AC161704791F8C1
:1043C0003400022803D0072803D004A002E004A090
:1043D00000E005A0C1F8B400704700002000000014
:1043E0005461736B205100005461736B2053656DF1
:1043F0000000000005A2C1F8B420816811B18968ED
:10440000096A00E001A1C1617047000020000000BE
:1044100070B580F83710C68F056B0FE0EC68208A06
:104420000834012807D92946204600F04FF82946CC
:10443000204600F00BF8761EB6B22035002EEDD1E6
:1044400070BD0021016041600181704730B58A680C
:10445000002392F8374002891AB1521C0281026887
:104460000BE0012202814B600B60016014E0956853
:1044700095F83750A54203D85268002AF7D107E0D3
:1044800032B1146854B1C1E900426160116030BDBD
:104490004B6042680A605160416030BD1160C1E903
:1044A0000032016030BD70B50646C48F056B07E071
:1044B000E8682946083000F009F8641EA4B22035E7
:1044C000002CF5D10020F087306370BD10B5028953
:1044D0000023012A0BD00A6862B14C6874B15460A1
:1044E00022600289521E02814B600B6010BD036086
:1044F0004360F6E74A6813600260F2E75360426087
:10450000EFE7F8B50C46064691F8361000250698F8
:1045100008294ED2DFE801F04D4D04044D4D282806
:1045200094F83410032910D02265A4F85430206484
:1045300036B12046FFF7B7FF21463046FFF75AFF56
:1045400094F83600032806D008E000902146304653
:1045500000F030F8ECE7204600F0B2FC204600F016
:1045600099F884F8365020E094F83410032910D0DC
:104570002265A4F85430206436B12046FFF793FF3B
:1045800021463046FFF736FF94F83600072806D05C
:1045900008E000902146304600F00CF8ECE7204699
:1045A00000F08EFC042084F8360084F8355084F83E
:1045B0003450F8BD70B50C6B049DC98F0AE0E668F5
:1045C000864204D1C4E904022383E56170BD491E1B
:1045D00089B220340029F2D170BD000010B500244A
:1045E000064802E02034E4B2001D01680029F9D039
:1045F0000846FBF788FE2044C0B210BD1000002022
:1046000000200449024600BF41F82020401C022837
:10461000FAD370471000002000F01F02410901206A
:10462000C2F11F029040034A52F82130034342F87E
:10463000213070471000002000F01F0241090120C6
:10464000C2F11F029040034A52F82130834342F8DE
:104650002130704710000020034A00211160034AF6
:104660001180018070470000580000205C0000208D
:104670000020074B014600BF00EB400203EB820223
:10468000401C11811160C0B251604028F4D37047C2
:10469000444B002010B5044690F83700FFF7BCFFEC
:1046A000074994F8370009788842204603D1BDE8CD
:1046B000104000F023B8BDE8104000F003B800003F
:1046C0005200002090F837100B4A01EB410102EB39
:1046D000810100220B8943B15B1C0B810B68C0E98F
:1046E00003320A6810610860704701230B81C260C1
:1046F0000261086048607047444B002090F8371012
:104700000A4A01EB410102EB810100220B893BB116
:104710005B1C0B81C2604A680261D06048607047D0
:1047200001230B81C26002610860F7E7444B00205F
:1047300070B5054690F83700114900EB400001EBD9
:104740008001D5E90302002442B10B895B1E0B8175
:10475000D06090B102612C61EC6070BD28B10A8913
:10476000521E0A8104610860F5E70C810C604C6000
:1047700095F83700FFF760FFEDE74A60EBE70000D0
:10478000444B0020044810B50078012803D1FCF701
:1047900091FE0249086010BD6C00002060000020FE
:1047A0000A4810B5007800280ED1FCF783FE0849AE
:1047B0000968401A07490A68824200D2086006491F
:1047C0000A68824200D2086010BD00006C00002020
:1047D000600000206400002068000020034A0021DF
:1047E0001160034A118001807047000070000020B2
:1047F000740000201CB56E4C6E4E2068450004E02D
:1048000028466A460021FFF72BFC30780128F7D1B3
:104810006846FFF715F8684822680168914206D992
:104820000A462168B2FBF1F15FEA010803D1006892
:104830000A21B0FBF1F8DFF884B1614F42F2107940
:104840005FF00006FCF736FE0190FBF751FD5D4975
:104850005D4C0A6822600E60FBF74EFD5B482368E2
:10486000016899422BD95A48814202D24846012216
:1048700015E05848814203D24FF47A700A220EE0C4
:104880005548814202D26420024608E053488142E2
:1048900003D20A204FF47A7201E001204A46B1FBAC
:1048A000F2F15843B0FBF1F1A9EB01004C4980B2A1
:1048B000ABF800000A88824203D2088001E0ABF81E
:1048C0000090FFF765F80024FBF712FD3D680CE04F
:1048D000FBF70EFD55F8901FC5E90061FBF70CFDD5
:1048E00068680444FBF704FD2D6AFBF705FD002D05
:1048F000EED114B33648844202D24D46012015E071
:104900003448844203D24FF47A750A200EE03248CC
:10491000844202D26425284608E03048844203D20B
:104920000A254FF47A7001E001254846B4FBF0F007
:104930008246FBF7DDFC3C681EE000250120F7E71E
:10494000D4F894006843B0FBFAF080B2484500D92F
:104950004846A4F88000B4F88210814201D2A4F83D
:10496000820004F1A0026B46111D2046FFF70AFAEF
:10497000FBF7BEFCD4F8B040FBF7BEFC002CDFD147
:1049800018480178012903D106706846FEF758FFE0
:10499000FCF790FD0199401A13490A68824200D23F
:1049A00008606A4600214046FFF75AFB4AE70000CC
:1049B000E46B000888000020F86B000878000020F5
:1049C000940000207C000020840000208000002053
:1049D000801A060000093D00005A62020084D717C1
:1049E0007A000020760000208C00002030B51D4A9F
:1049F00089B0002111601C4A11601C4A11601C4AD8
:104A000011701C4A11701C4A136843B11B4B1C4D9A
:104A10001C682D68AC4205D246F62C6108E046F6CB
:104A20002B6105E0174C25783F2D04D346F62A610B
:104A3000018009B030BD032505910691CDE90750ED
:104A400011481B6812680068CDE90120CDE90331E7
:104A50002078009000230D4A0DA11248FEF7A0FF18
:104A6000E7E700007C000020840000208000002098
:104A70008800002076000020E86B0008F06B00083A
:104A8000F46B0008E06B0008EC6B0008F5470008C9
:104A900075432F4F532D4949492053746174205455
:104AA00061736B00444E002010B5044631B10A46D4
:104AB0000146064800F096F9032000E0022084F841
:104AC00036002046BDE81040FFF732BEAC000020A3
:104AD000074B0022C0F8AC20196829B1C0F8B0100B
:104AE000C1F8AC0018607047C0F8B020FAE70000C9
:104AF00094000020D0E92B2100234AB181B1C2F8F3
:104B0000B010C1F8AC20C0F8B030C0F8AC3070477D
:104B1000054A116009B1C1F8AC30C0F8B030704737
:104B2000C2F8B030F1E7000094000020044A0021F0
:104B30001160044A1180044A11600180704700002E
:104B400094000020980000209000002070B50025FF
:104B5000056085604560C560056145610446856105
:104B600021A0C4E907506562A562E5622564256558
:104B7000A4F85450294604F15800FFF7B1FBA5668C
:104B8000E5666567A4F87C500020A56704EB80010A
:104B9000401C0D6710F0FF00F8D06564C4F8985011
:104BA000C4F89C50A56384F87E50C4F8A450C4F89F
:104BB000A050A587A564E564A4F88050A4F88250AD
:104BC000C4F88450C4F888503434FCF773FCC4E94A
:104BD0001605656725706570A5704020E07004A01B
:104BE000A567C4E91F5070BD3F5461736B0000009E
:104BF0002000000070B50D460446FBF779FB064621
:104C00000020288094F83610082940D2DFE801F00F
:104C1000040404040B1F29333046FBF76DFB47F2F5
:104C2000531028800FE094F87E10491E11F0FF0108
:104C300084F87E1004D184F836002046FFF72AFD60
:104C40003046FBF759FBBDE87040FEF735BD94F8E0
:104C50007E00401E10F0FF0084F87E00F0D101209D
:104C600012E094F87E00401E10F0FF0084F87E00F1
:104C7000E6D1022008E094F87E00401E10F0FF000C
:104C800084F87E00DCD1032084F83600D8E7304673
:104C9000FBF732FB46F62D60288070BD044808B54E
:104CA0000068FEF7BFFF69460020FEF729FF08BD38
:104CB000D00000202DE9F8431E46144689460546DB
:104CC000FBF716FB07460DB91F480568002046F69E
:104CD000C5582C64308095F8360008282BD2DFE8C0
:104CE00000F004040D0D04040D0D6C6C601C1AD052
:104CF000641C38466C64FBF7FFFA23E095F8340037
:104D00000728F2D100231A46294618460094FFF7D7
:104D1000F8FB38466C6CFBF7EFFA5FEA094011D4F8
:104D2000FEF7CAFC0EE03846FBF7E6FAA6F800806C
:104D30000020BDE8F8833846FBF7DEFA46F62D6022
:104D4000308000242046F4E7D000002070B50D46E6
:104D50000446FBF7CDFA0646204804B9046800680B
:104D6000844208D11E48007828B13046FBF7C4FAC7
:104D700046F6635030E00020288094F83610012079
:104D8000082924D2DFE801F0040D16181E1E1E1E8D
:104D9000042184F8361084F87E002046FFF7C8FC12
:104DA00001E0052109E03046FBF7A6FABDE87040B6
:104DB000FEF782BC062100E0072184F8361084F853
:104DC0007E00F0E714F87E0F401C2070EBE73046C1
:104DD000FBF792FA46F62D60288070BDD0000020C7
:104DE0006C00002030B50368002433B94C618A643C
:104DF000C1E90640016001210FE09D6C954216D388
:104E00009D694B618A6455B1C1E906509C6CA21A38
:104E10009A64996169618188491C818030BDC1E9CA
:104E200006409C6CA21A9A6499610160F3E7521BD8
:104E30001D465B69002BE0D14C618A64C1E90650D4
:104E4000E8E70000F0B51C461B4BDFF868C0002502
:104E50001B6847F27E26042A04D0082A08D029B10C
:104E60000A4614E0CA1A624500D882B985641EE079
:104E7000D0F84CE0A3EB0E078F4202D90A469918EE
:104E800004E0CA1B62450BD852B17144C1640121D0
:104E900080F8361001460948FFF7A4FF2580F0BDD1
:104EA000B7FBF1F201FB02E21144C0E91251268086
:104EB000F0BD00000000FFFF9C000020A4000020C7
:104EC00030B5D0E90524C369002174B1626122B113
:104ED0009461946C856C2C44946481619A88521E10
:104EE0009A8041618164C16130BD32B19161946C3D
:104EF000856C2C4494641A60F0E719609980F1E79E
:104F0000704700002DE9F047FBF7F2F98246FCF705
:104F1000D1FA1A4D074600262C6814B3A06CB0468F
:104F2000401E4FF00409A06418E0761C94F8360087
:104F3000B6B2012802D0052806D007E084F83680F2
:104F40002046FFF7A7FB01E084F8369064692C60E7
:104F50008CB1A888401EA880C4F81880A06C0028D6
:104F6000E3D0EE80FCF7A6FAC41B5046FBF7C4F969
:104F70002046BDE8F087A5F80480F2E7A4000020F1
:104F80002DE9F047FBF7B4F98246FCF793FA274D79
:104F9000074600262C68DCB3A06C4FF00309401EC6
:104FA000B046A06431E0761C94F83600B6B203280F
:104FB00002D0072810D020E0C4F85080A4F8548014
:104FC000FCF778FA20642046FFF76DFA2046FFF7D9
:104FD00061FB84F836800CE0C4F85080A4F854805B
:104FE000FCF768FA20642046FFF75DFA042084F895
:104FF000360084F8359084F8348064692C608CB174
:10500000A888401EA880C4F81880A06C0028CAD0C8
:10501000EE80FCF74FFAC41B5046FBF76DF92046B3
:10502000BDE8F087A5F80480F2E70000AC0000209E
:105030001CB5114F114D124E00216B4601AA0846B6
:10504000FEF7F8FDBDF800000028F5D138780128FA
:10505000F2D1FBF74DF92968491C2960FBF74CF99F
:10506000FFF750FF0446FFF78BFF31682044814271
:10507000E2D23060E0E70000390000209C00002010
:10508000A000002030B51D4A89B0002111601C4AE3
:105090001C4B116019609180D1801B4A9980D98086
:1050A000136843B1194B1A4D1C682D68AC4205D2E8
:1050B00047F2132108E047F2122105E0154C25784C
:1050C0003F2D04D347F21121018009B030BD0B25DB
:1050D00005910691CDE9075018680F4B12681B68BF
:1050E000CDE90301CDE901232078009000230B4A8C
:1050F0000BA11048FEF754FCE7E700009C000020DD
:10510000A4000020AC000020006C0008086C00081F
:10511000F46B0008FC6B0008046C000831500008B8
:1051200075432F4F532D494949205469636B2054CF
:1051300061736B00FC4E002030B50546294889B0EC
:105140000024046028482A492A4A04602748048029
:1051500029480B681BB11268B2FBF3F103E0116838
:105160000A22B1FBF2F10160084624492A46086090
:10517000234825A10460234804602748FEF704F96A
:105180002888002815D12548016841B12449254BBC
:105190000A681B689A4205D247F2483008E047F295
:1051A000473005E0204A13783F2B04D347F24630BE
:1051B000288009B030BD0B23CDE906431B4B089571
:1051C00005941B6809680068CDE90103CDE9031463
:1051D000107800900023164A16A11C48FEF7E0FB49
:1051E000E7E70000B4000020BC000020B800002069
:1051F000106C0008F86B0008C8000020CC000020EC
:10520000C4000020C00000204F5320546D72204D78
:105210007574657800000000B44F0020146C00081D
:105220001C6C0008F46B00080C6C0008186C00087B
:105230006D52000875432F4F532D49494920546939
:105240006D6572205461736B00000000E04F002018
:105250000EB501A80022009002AB11460148FEF7EE
:10526000C9F80EBDB44F0020704700001CB5DFF830
:105270008880DFF88890DFF888A000216B4601AABB
:105280000846FEF7D7FCFFF7E3FFFCF713F9D8F861
:1052900000100646491CC8F800100327D9F8004042
:1052A00018E06846FEF742FAA0692569401EA06131
:1052B0000CD1A08C02281BD0204600F023F884F8E3
:1052C0002670A26812B12046E16890472C466846D5
:1052D000FEF756FA002CE4D1FCF7ECF8841B00F042
:1052E0002FF8DAF80010A142C7D2CAF80040C4E78C
:1052F000206AA061E5E70000C4000020BC00002097
:10530000C00000200C4B10B51C68002201698442CB
:1053100003D1196029B14A6103E04369196101B100
:105320004B61012180F8261004490261426108881E
:10533000401E088010BD0000BC000020B800002006
:1053400008B56A4600210248FEF724F908BD0000AE
:10535000B44F002010B500211848FDF7E9F90421E9
:105360001648FDF7E5F908211448FDF7E1F90C218D
:105370001248FDF7DDF900211148FDF7D9F90421A4
:105380000F48FDF7D5F908210D48FDF7D1F90C219B
:105390000B48FDF7CDF900210A48FDF7C9F90421B2
:1053A0000848FDF7C5F908210648FDF7C1F9BDE831
:1053B00010400C210348FDF7BBB900006037002006
:1053C000A8370020F037002010B5002303E010C8F4
:1053D00041F823405B1C9342F9D310BD7047000095
:1053E00030B593B030216846FBF75AF814210CA869
:1053F000FBF756F81D480025016841F08051016017
:10540000006800F0805011901948016841F4804113
:1054100001600068022400F4804011900120039094
:1054200010200490009406940820CDE90750A8208D
:10543000CDE9090404200B906846FCF787FD08B10C
:1054400072B6FEE70CA90F2081E831004FF4A0509E
:105450000F904FF48050109005210CA8FCF784FCAD
:10546000002801D072B6FEE713B030BD40380240CC
:10547000007000400248016841F47001016070470B
:1054800088ED00E0F0B50268254C264D264E274FEA
:10549000274B4FF0804CA04209D0604507D0A8426E
:1054A00005D0B04203D0B84201D0984204D122F0D6
:1054B000700E4A6842EA0E02A0421BD0604519D025
:1054C000A84217D0B04215D0B84213D0984211D09C
:1054D000184DA8420ED0184DA8420BD0174DA84227
:1054E00008D0174DA84205D0164DA84202D0164D3F
:1054F000A84203D122F44075CA682A434D6922F0BC
:1055000080022A4302608A68C2620A688262A042FC
:1055100001D0984201D10969016301214161F0BDC7
:10552000000001400004004000080040000C004062
:105530000004014000400140004401400048014097
:1055400000180040001C00400020004010B501F091
:105550001F030121046A99408C430462016A9A4046
:105560001143016210BD10B5846842EA032224F49D
:105570007F440A432243826010BD826822F0700299
:105580000A4342F00701816070470000F0B5026AEB
:1055900022F001020262036A42688469124E24F01A
:1055A00073050C682C4323F002058B682B430D4DCB
:1055B000A84201D0B04205D123F00807CB683B4395
:1055C00023F00403A84201D0B04205D14D6922F472
:1055D000407215438A692A43426084614968416385
:1055E0000362F0BD0000014000040140F0B5026A12
:1055F00022F010020262026A436884690D6824F492
:10560000E64444EA05248D6822F0200242EA0512AD
:105610000F4D104EA84201D0B04206D1CF6822F003
:10562000800242EA071222F04002A84201D0B042B2
:1056300007D14D6923F4406343EA85038D6943EA4A
:10564000850343608461496881630262F0BD0000A4
:105650000000014000040140F0B5026A22F48072AB
:105660000262026A4368C46922F4007224F073057E
:105670000C68124E2C438D6842EA05220E4DA8425A
:1056800001D0B04206D1CF6822F4006242EA07227C
:1056900022F48062A84201D0B04207D14D6923F4C0
:1056A000405343EA05138D6943EA05134360C4611F
:1056B0004968C1630262F0BD00000140000401407E
:1056C00030B5026A22F480520262046A4268C369F9
:1056D0000D6823F4E64343EA05238D6824F400545F
:1056E00044EA0534084DA84202D0084DA84204D12E
:1056F0004D6922F4804242EA85124260C3614968E2
:105700000164046230BD000000000140000401405B
:1057100010B5036A046A24F001040462846924F069
:10572000F00444EA021423F00A020A43846102628C
:1057300010BD10B5036A23F0100303628369046A85
:1057400023F4704343EA023224F0A00343EA011138
:105750008261016210BD00000148FDF74FB80000F2
:105760003838002010B5806B0021C185C184FDF759
:1057700044F810BD70B5846B2068406994F83D1002
:10578000C0F3C0100025212904D118B1E5842046BA
:1057900000F08AF82068406994F83E10C0F3801049
:1057A000222904D118B1E585204600F056F8206C76
:1057B00040F0100020642046FDF71FF870BD10B5C2
:1057C0000146806B09680968C9052FD40021C1858D
:1057D00001680C3151E8002F22F4807241E8002367
:1057E000002BF5D10168143151E8002F22F001029D
:1057F00041E80023002BF5D10168143151E8002F56
:1058000022F0400241E80023002BF5D1202180F84E
:105810003E10016B012909D101680C3151E8002FBC
:1058200022F0100241E80023002BF5D1016B012981
:1058300002D0FDF74BFA10BD818DFCF7DDFF10BDE6
:1058400010B5806B016B012902D0FDF75BFA10BD2A
:10585000818D4908FCF7D0FF10BD01680C3151E87B
:10586000002F22F4907241E80023002BF5D101684B
:10587000143151E8002F22F0010241E80023002BEF
:10588000F5D1016B012909D101680C3151E8002FD4
:1058900022F0100241E80023002BF5D1202180F8EE
:1058A0003E1000210163704701680C3151E8002F60
:1058B00022F0C00241E80023002BF5D1202180F81E
:1058C0003D107047294B10B5B3F9004000EE104A67
:1058D000B8EEC00A80ED000AB3F9024000EE104AAB
:1058E000B8EEC00A80ED010AB3F9043000EE103AB8
:1058F000B8EEC00A80ED020A1C48801DB0F90030E5
:1059000000EE103AB8EEC00A81ED000AB0F902309C
:1059100000EE103AB8EEC00A81ED010AB0F90400B9
:1059200000EE100A1148B8EEC00A0C3081ED020AF0
:10593000C17800EE101AB8EE400A82ED000A4178F4
:1059400000EE101AB8EE400A82ED010A817800EEEE
:10595000101AB8EE400A82ED020A007800EE100A32
:10596000B8EE400A82ED030A10BD0000C20100201B
:1059700030B54A4CB4F9005000EE105AF8EEC00AA7
:105980009FED470A20EE801AF3EE000A21EE201A5E
:1059900081ED001AB4F9025001EE105AB8EEC11AA6
:1059A00021EE001A21EE201A81ED011AB4F904400B
:1059B00001EE104AB8EEC11A21EE001A61EE200A7B
:1059C000C1ED020A35490831B1F9004000EE904AB4
:1059D000F8EEE00A20EE801ADFED320A21EE201AFE
:1059E00080ED001AB1F9024001EE104AB8EEC11A7A
:1059F00021EE001A21EE201A80ED011AB1F90410EF
:105A000001EE101AB8EEC11A21EE001A61EE200A5A
:105A1000C0ED020A21481830B0F9001000EE901ACB
:105A2000F8EEE00AC2ED000AB0F9021000EE901A9A
:105A3000F8EEE00AC2ED010AB0F9040000EE900AA7
:105A40001648F8EEE00A1030C2ED020AB0F9001074
:105A500000EE901AF8EEE00A20EE801ADFED120A4E
:105A600021EE201A83ED001AB0F9021001EE101A8F
:105A7000B8EEC11A21EE001A21EE201A83ED011AA8
:105A8000B0F9040001EE100AB8EEC11A21EE000AC6
:105A900020EE200A83ED020A30BD00000001002044
:105AA000000000380000FA440000344308B590F8C4
:105AB0003E10222901D0022008BD82684FF4805395
:105AC0009A4201D1016921B1816A9A421BD04AB13F
:105AD0000AE00268816A5268C2F308020A80816A99
